:020000040800F2
:1000000008800120E96500088B0300088D030008C3
:100010008F0300089103000893030008000000000C
:10002000000000000000000000000000890200083D
:100030009503000800000000DD020008416200088E
:1000400003660008036600080366000803660008EC
:1000500003660008036600080366000803660008DC
:1000600003660008036600080366000803660008CC
:1000700003660008036600080366000803660008BC
:1000800003660008036600080366000803660008AC
:10009000036600080366000803660008036600089C
:1000A000036600080366000803660008036600088C
:1000B00003660008A90A00086394000803660008A4
:1000C000036600080366000803660008036600086C
:1000D00003660008BD6300080366000803660008A5
:1000E000036600080366000803660008036600084C
:1000F000036600080366000803660008036600083C
:100100000366000803660008CD0A000803660008BD
:10011000036600080366000803660008036600081B
:1001200003660008C1510008036600080366000862
:1001300003660008E560000803660008036600081F
:1001400003660008036600080366000803660008EB
:1001500003660008036600080366000803660008DB
:1001600003660008036600080366000803660008CB
:100170000366000803660008E550000803660008EF
:10018000036600080366000800F002F800F06DF84E
:100190000AA090E8000C82448344AAF10107DA45E2
:1001A00001D100F062F8AFF2090EBAE80F0013F0C7
:1001B000010F18BFFB1A43F0010318475CBB010095
:1001C0007CBB01000A444FF0000C10F8013B13F017
:1001D000070408BF10F8014B1D1108BF10F8015BA0
:1001E000641E05D010F8016B641E01F8016BF9D193
:1001F00013F0080F1EBF10F8014BAD1C0C1B09D1EA
:100200006D1E58BF01F801CBFAD505E014F8016B5B
:1002100001F8016B6D1EF9D59142D6D370470000ED
:100220000023002400250026103A28BF78C1FBD8FF
:10023000520728BF30C148BF0B607047642919F0CE
:10024000ED80752919F0EA80782919F02381632956
:1002500019F09983732919F09E83002070471FB508
:1002600019F05EFD1FBD10B510BD19F0E1FB114680
:10027000FFF7F5FF00F063F819F0FFFB03B4FFF799
:10028000F2FF03BC06F040F82A4B19680868B0E892
:10029000F04F80F30988BFF36F8F4FF0000080F3B9
:1002A000118870470000000006480068006880F36D
:1002B000088862B661B6BFF34F8FBFF36F8F00DF60
:1002C00000BF00BF08ED00E0DFF80C00016841F45A
:1002D00070010160704700BF88ED00E0EFF3098016
:1002E000BFF36F8F134B1A681EF0100F08BF20ED7D
:1002F000108A20E9F04F106008B44FF0500080F3EE
:100300001188BFF34F8FBFF36F8F17F097FC4FF03B
:10031000000080F3118808BC19680868B0E8F04F45
:100320001EF0100F08BFB0EC108A80F30988BFF3ED
:100330006F8F70471C030020EFF30580704710B5E6
:100340004FF4407006F070F9A82005F083FF4FF4D9
:10035000E134204605F0E0FF21462A2005F0E2FBCB
:1003600000F02AFB01F0F0F805F0A0FC002006F0F8
:1003700067F8012006F064F8022006F061F805F045
:1003800013FC00F029F9002010BD7047FEE7FEE7DE
:10039000FEE7FEE7704700000CB5002254490092CA
:1003A0000192086840F4803008604FF4A043086868
:1003B00000F4003001900098401C0090019810B9A2
:1003C00000989842F3D10868800334D50120019049
:1003D00047484030026842F0805202604548026857
:1003E00042F44042026042480830026802600268FB
:1003F00042F400420260026842F4A0520260031F0D
:100400003D4A1A600A6842F080720A600A689201E6
:10041000FCD53A4940F205720A60016821F00301F7
:100420000160016841F0020101600168C1F38101CE
:100430000229FAD10CBD01920CBD314810B50168FA
:1004400041F4700101602A48016841F00101016036
:10045000274A00210832116002682A4B1A400260C4
:10046000031D294A1A60026822F480220260204893
:100470000C300160FFF790FF21494FF00060803998
:10048000086010BD70B51A4D083528681F4B20490B
:1004900010F00C0004D05E10042803D0082803D00C
:1004A0000B601BE00E6019E0114A121D1068C0F3CA
:1004B0008054106800F03F0014B1B6FBF0F001E08A
:1004C000B3FBF0F013681268C3F388135843C2F308
:1004D0000142521C5200B0FBF2F0086028680C4A3E
:1004E000C0F30310121D105C0A68C2400A6070BDA0
:1004F000003802400070004008544007003C0240B1
:1005000088ED00E0FFFFF6FE103000240024F40028
:10051000000000201CB510244FF4FA754FF6FF764A
:1005200015E089A0CDE900401423C8226E211E20C9
:1005300004F0AFFD284617F0B5FA9623E6226E21A7
:100540001E20009604F08FFB284617F0ABFA0AF045
:1005500005F80028E5D181A0CDE900401023C8228C
:100560006E211E2004F095FD81A0CDE900401023EE
:10057000C82282211E2004F08CFD834C07E083A05A
:1005800018F0DCFE0AF0E8F80A2017F08BFAA07DDC
:10059000022802D0A07DFF28F1D109F07AFD0AF0EF
:1005A000DBF8022017F07EFAF7E71CB518F02BFDF8
:1005B0007A4903200023CDE90001802278A1AFF21F
:1005C000AB0017F0ADF87548001F006817F0D3F8BE
:1005D000BDE81C4018F031BD1CB575494FF478409A
:1005E0001024088073A0CDE900402346C8223221A0
:1005F0001E2004F04EFD74A0CDE900401023C82257
:1006000046211E2004F045FD72A0CDE900401023D4
:10061000C8225A211E2004F03CFD72A0CDE9004002
:100620001023C8226E211E2004F033FD70A0CDE9F6
:1006300000401423C8226E211E2004F02AFD71A060
:1006400018F07CFE74A0CDE900401023C82282215E
:100650001E2004F01EFD73A018F070FE4F4901200B
:10066000091F0023CDE90001802272A1AFF2C5006D
:1006700017F056F8BDE81C4017F0F8BBF0B5424C37
:100680008BB01026677B217BA27AE37ACDE9001735
:1006900002AD022831D06AA1284618F05BFECDE9F0
:1006A00000651023D22282211E2004F0F2FC617D1D
:1006B000207DCDE90001E37CA27C67A102A818F0AF
:1006C00049FECDE900651023D22296211E2004F0B8
:1006D000E0FC617C207CCDE90001E37BA27B64A18E
:1006E00002A818F037FECDE900651023D222AA2116
:1006F0001E2004F0CEFC0BB0F0BD63A1284618F01C
:1007000029FECDE900651023D22282211E2004F0AB
:10071000C0FC617D207DCDE90001E37CA27C60A16D
:1007200002A818F017FECDE900651023D222962109
:100730001E2004F0AEFC617C207CCDE90001E37B4F
:10074000A27B5DA1CCE700004C77697020496E69FF
:1007500074206661696C6564210000006C77495003
:1007600020496E6974205375636365737365640013
:100770004448435020495020636F6E666967696E34
:10078000672E2E2E0000000054240120B5C8B4FDB1
:1007900044484350BBF1C8A10D0A000018000020D6
:1007A0007463705F636C69656E745F7461736B0012
:1007B000280000204578706C6F7265722053544D8C
:1007C00033324634000000004F5632363430205465
:1007D0004553540041544F4D40414C49454E5445BA
:1007E0004B000000323031342F352F3134000000FF
:1007F0004C77697020496E69742053756363657323
:10080000732100004C77697020496E69742053751C
:1008100063636573730000004F5632363430204FE7
:100820004B0000004F5632363430204F4B2F722F82
:100830006E00000073746172745F7461736B00000A
:100840005374617469632049503A25642E25642EDF
:1008500025642E2564000000537461746963204789
:10086000573A25642E25642E25642E256400000049
:100870004E4554204D41534B203A25642E25642E7D
:1008800025642E2564000000444843502049502030
:100890003A25642E25642E25642E25640000000070
:1008A00044484350204757203A25642E25642E257E
:1008B000642E2564000000004E4554204D41534BEA
:1008C0003A25642E25642E25642E25640000000040
:1008D00070B5354C2078354D88BB0021284608F08E
:1008E000F4F9284608F035FA0028FAD1284608F02D
:1008F0000CFAC0F5806082B2D4E9011000EB8103EC
:1009000028684FF0000100030AD5294805E050F897
:10091000216043F82160491C89B29142F7D309E074
:10092000244805E050F8216043F82160491C89B251
:100930009142F7D3606810446060012020702078F5
:1009400002280AD14102284608F0DDF90121284693
:1009500008F0BBF900202070606070BD30B5124B0C
:10096000D3E9011000EB8101104800684FF4806466
:1009700000034FF000000DD50E4A52F8205041F808
:100980002050401C80B2A042F7D3586800F5806028
:10099000586030BD064A52F8205041F82050401CA3
:1009A00080B2A042F7D3F0E71C0000202864024088
:1009B00090130020900300207CB50121202005F039
:1009C000F4FF01208DF8040000228DF80620032199
:1009D0008DF80510074D4FF4C0648DF807000094A2
:1009E0006946284606F0FCFF2146284607F05DF8D8
:1009F0007CBD0000001402407FB50D460446012175
:100A0000022005F0F0FF00210194ADF80050384CB1
:100A1000ADF80210ADF808106946204606F068F9F6
:100A200001221146204606F0ECFC0121204606F08A
:100A3000D7F91D208DF80C0001208DF80D00032141
:100A40008DF80E108DF80F0003A805F0F2FD7FBDA4
:100A50007FB50D4604460121082005F0C4FF01942E
:100A6000ADF800500024234DADF80240ADF8084029
:100A70006946284606F03CF901221146284606F050
:100A8000C0FC0121284606F0ABF932208DF80C009D
:100A900005208DF80D008DF80E4001208DF80F0017
:100AA00003A805F0C6FD7FBD10B5114C01212046FD
:100AB00006F0BBFC012803D10F490A680A320A601C
:100AC0002046BDE81040012106F0BBBC10B5094C22
:100AD0000121204606F0A9FC012802D107A018F048
:100AE0002DFC2046BDE81040012106F0AABC000004
:100AF00000040040000C00406402002054494D35C1
:100B0000CAE4B3F62E2E2E2E2E2E2E0D0A00000035
:100B100001B5BDF80000ADF80000BDF800004FF0D1
:100B2000D841A1F87E0008BD01B5BDF80000ADF8C0
:100B30000000BDF800004FF0D841A1F8800008BDCA
:100B400008B54FF0D840B0F88000ADF80000BDF80F
:100B5000000008BD4FF0D84222F87E0F5180704748
:100B600010B5FFF7D5FF052005F08DFBBDE810405F
:100B7000E6E7FE484FF0D8410089A1F87E007047B3
:100B80004FF0D841A1F880007047C0F34511C20A68
:100B9000C00200EB4110104480B27047401EC0B24A
:100BA000FCD27047F0B5F14E0C460246050AB188FA
:100BB0003046A1F5134340894FEA142C413B1AD02B
:100BC000A1F5A643103B16D0B646B3793688A1F5F9
:100BD000D047B61A761E043F17D07746A1F5C85EF7
:100BE000BEF1630E25D0A1F5A04EBEF5A26E57D082
:100BF000012B6FD06FE0FFF78BFF2846FFF794FFC4
:100C0000D0B2FFF791FFB0890CE07546012B00D1FF
:100C1000B2B2FFF77DFF100AFFF786FFD0B2FFF7F1
:100C200083FFA889FFF774FF6046FFF77DFFE0B2FE
:100C300025E03BB3FFF76CFF2846FFF775FFD0B206
:100C4000FFF772FF3888401EC0F30F20FFF76CFFDC
:100C50003878401EC0B2FFF767FFB889FFF758FF2A
:100C60006046FFF761FFE0B2FFF75EFF7888401E45
:100C7000C0F30F20FFF758FFB878401EC0B2BDE8A0
:100C8000F04051E7B2B2FFF743FF0020FFF74CFFFF
:100C90000020FFF749FF100AFFF746FFD0B2DAE75E
:100CA000FFF736FF2846FFF73FFF7889401C80B2E8
:100CB000FFF72EFFD0B2FFF737FFB889FFF728FF05
:100CC0006046FFF731FFB889401C80B2FFF720FF74
:100CD000ADE7FFE7B2B21146FFF73CFFB889214606
:100CE000BDE8F04036E72DE9F041A04E002425464E
:100CF0003288824202D972888A4202D80020BDE836
:100D0000F081FFF74FFFB08849F2413841F6631C8C
:100D100045F2103245F21057404507D0A0F5D041BA
:100D2000043903D0904201D0604501D12E2005E066
:100D3000B84202D14FF4385000E02220FFF7E8FE1D
:100D4000B088A0F51341203903D10220401EC0B263
:100D5000FCD2FFF7F5FEB1886145D0D00220401EDD
:100D6000C0B2FCD2FFF7ECFE0146B088C446604535
:100D700003D0904201D0B8420BD10220401EC0B235
:100D8000FCD2FFF7DDFE0546C8B24FF6FF7303EA5B
:100D90000024B088A0F51343253B1DD0A0F58A435D
:100DA000353B19D0A0F58A43313B15D0A0F535432A
:100DB000053B11D0A0F54543053B0DD0604503D060
:100DC000904201D0B84209D1C80AC002A10A40EA43
:100DD000411040EAD52092E7084690E7BDE8F0418F
:100DE0000846D2E661488088A0F51341413913D006
:100DF000A0F5D04104390FD0A0F5A64110390BD091
:100E0000A0F5C851633907D0A0F5AA41103905D023
:100E100040F2731107209DE6292001E04FF4245091
:100E200076E652488088A0F51341413912D0A0F5EA
:100E3000D04104390ED0A0F5A64110390AD0A0F552
:100E4000C851633906D0A0F5AA41103904D0002159
:100E500007207FE6282001E04FF4205058E6F0B547
:100E6000424C00232146A279898846F6040741F6C0
:100E70006315012A01D02AB11DE0B9421BD0A94255
:100E800002D118E0A94216D1082814D2DFE800F0F8
:100E90000406080A0C0E101206200CE007200AE0D7
:100EA000042008E0052006E0012004E0002002E024
:100EB000032000E00220A1F5134C45F2103245F268
:100EC0001056BCF1410C07D0B94205D0914203D075
:100ED000B14201D0A9427CD1082812D2DFE800F04B
:100EE000110406080A0C0E1080230AE0402308E0D3
:100EF000C02306E0202304E0602302E0A02300E0FA
:100F0000E023B14202D14FF4585000E03620914224
:100F100005D0B14203D0A94201D043F00803B94241
:100F200001D143F002031946FFF714FEA288AA423A
:100F30000AD098062088618802D5884202D303E04F
:100F4000884201D9218060806089B24245D1FFF793
:100F5000DFFD0020FFF7E8FD6089401C80B2FFF74D
:100F6000D7FD0020FFF7E0FD608901E0902300201D
:100F7000801C80B2FFF7CCFD2088401EC0F30F20FC
:100F8000FFF7D2FD6089C01C80B2FFF7C1FD207859
:100F9000401EC0B2FFF7C8FDA089FFF7B9FD0020D1
:100FA000FFF7C2FDA089401C80B2FFF7B1FD002011
:100FB000FFF7BAFDA089801C80B2FFF7A9FD608809
:100FC000401EC0F30F20FFF7AFFDA089C01C80B208
:100FD00000E02AE0FFF79CFD21E0FFF799FD0020EB
:100FE000FFF7A2FD0020FFF79FFD2088401EC0F301
:100FF0000F20FFF799FD2078401EC0B2FFF794FD47
:10100000A089FFF785FD0020FFF78EFD0020FFF788
:101010008BFD6088401EC0F30F20FFF785FDA07890
:10102000BDE8F040401EC0B27EE5082812D2DFE8DD
:1010300000F0040608110A0C0E1030230AE01023F9
:1010400008E0202306E0382304E0282302E01823E8
:1010500000E00823BDE8F040032043F4805179E527
:1010600000B5FFF79FFDFFF784FDFE484FF0D84124
:101070000088A1F8800000BD2DE9F041FA4D9046AE
:101080000C460246060AA9882846A1F51343408962
:101090004FEA142C413B17D0A1F5A643103B13D0C7
:1010A000A1F5AA43103B13D02E46A1F5C857B3793A
:1010B0003688B61A761E633F23D0A1F5D047043F89
:1010C0003AD0012B4DD04DE0FFF722FD304639E0FC
:1010D000FFF71EFD3046FFF727FD6889401C80B2F0
:1010E000FFF716FDD0B2FFF71FFDA889FFF710FD2F
:1010F0006046FFF719FDA889401C80B2FFF708FD84
:101100002BE003B9B2B2FFF703FD160A3046FFF732
:101110000BFDD0B2FFF708FD3046FFF705FDD0B25A
:10112000FFF702FDA889FFF7F3FC6046FFF7FCFC20
:10113000E0B2FFF7F9FC0DE0012B00D1B2B2FFF7EE
:10114000E7FC100AFFF7F0FCD0B2FFF7EDFCA8892E
:10115000FFF7DEFC6046FFF7E7FCE0B2FFF7E4FCD8
:1011600007E0B2B21146FFF7F5FCA8892146FFF768
:10117000F1FC4FF0D840298920F87E1FA0F80280AA
:10118000BDE510B50246BE20FFF7C2FC0520FFF703
:10119000CBFC104618F0B3FC9FEDB41B53EC112BA5
:1011A00018F0C0FC18F07EFC80B2FFF7BDFC0120F7
:1011B000FFF7BAFCFF20FFF7B7FC0020FFF7B4FCF5
:1011C000BDE810400020AFE42DE9F04FA6492A23E6
:1011D0002B24898845F2105A4FF4305B4FF4285E77
:1011E0004FF448754FF0F00C49F241394FF4A077B5
:1011F00045F210364FF4F07280B19B484FF0010871
:10120000494580F806800780A0F802C001D0B142AD
:101210003ED12C2505814381848157E092484FF0CF
:101220000008494580F80680A0F800C0478006D035
:10123000A1F5D04CBCF1040C01D0B1420CD12C254D
:1012400005814381A1F5D0438481043B01D0B142A3
:1012500044D10780428041E0514507D1A0F808B051
:10126000A0F80AE04FF42C5181810EE0A1F5C85698
:10127000633E06D0222101812021418121218181EB
:101280002CE02C210181448183810280458025E06E
:10129000A1F5D04CBCF1040C09D051450BD1A0F8FC
:1012A00008B0A0F80AE04FF42C53838120E02C25ED
:1012B0000581448109E0A1F5C85CBCF1630C11D043
:1012C000222303812123438120238381A1F5D0435D
:1012D000043B01D0B14201D102804780BDE8F04F0C
:1012E0000020BCE54FF02C0CA0F808C0438184819D
:1012F00005804280EAE72DE9FE4F0446104401EBE9
:101300000308DFF86491401EA8F1010887B2B9F81C
:101310000400C8F3072302930B0A0093A3185B1E73
:10132000C3F3072301934B460D465B89A0F5134198
:101330001FFA88F64FEA142B413910D0A0F5A641C8
:1013400010390CD0A0F5D041043908D099F806A086
:1013500041F6631CBAF1010F1ED160451CD14A460B
:101360001846FFF7D5FB5846FFF7DEFBE0B2FFF764
:10137000DBFB0198FFF7D8FBF8B2FFF7D5FB9089AC
:10138000FFF7C6FB0098FFF7CFFBE8B2FFF7CCFBF7
:101390000298FFF7C9FB95E033496045098825D1DC
:1013A000881A001B84B24E461FFA88F71846FFF7CA
:1013B000AFFB200AFFF7B8FBE0B2FFF7B5FB224412
:1013C000521EC2F30F20FFF7AFFBD0B2FFF7ACFB0A
:1013D000B089FFF79DFB0098FFF7A6FBE8B2FFF787
:1013E000A3FB380AFFF7A0FBF8B26CE0A0F5A04C15
:1013F0004A46BCF5A26C23D0BAF1010F67D03B4638
:1014000020462F46502201464FF051094FF0520816
:101410004FF0530C1046FFF79DFB19464846FFF767
:1014200099FB39464046FFF795FB31466046FFF78A
:1014300091FB03B029462046BDE8F04FFFF7B2BB51
:101440001846FFF765FB5846FFF76EFB5089401CB6
:1014500080B2FFF75DFBE0B2FFF766FB5089801CAE
:1014600080B207E0280000209023002066666666B0
:1014700066660440FFF74CFB0198FFF755FB508967
:10148000C01C80B2FFF744FBF8B2FFF74DFB908918
:10149000FFF73EFB0098FFF747FB9089401C80B2A6
:1014A000FFF736FBE8B2FFF73FFB9089801C80B264
:1014B000FFF72EFB0298FFF737FB9089C01C80B224
:1014C000FFF726FBF0B2BDE8FE4FFFF72DBBCA1BAE
:1014D000521E091B3346491E284697B28EB291E729
:1014E0002DE9F043FF4F0646002438887D884543A8
:1014F000B888A0F5D041043902D1B879012808D0C4
:1015000000210846FFF74EFBFFF733FB4FF0D840B2
:1015100016E00020B8714FF02A09A7F80A904FF0A2
:101520002B08A7F80C800146FFF73CFB0120B8719F
:10153000A7F80A80A7F80C90E6E7A0F88060641C82
:10154000AC42FAD3BDE8F0832DE9F04FA1B00024FE
:1015500001217A201F9405F028FA0121084605F0A0
:1015600038FA01208DF804008DF8064002208DF82D
:10157000050001204FF4004B8DF80700CDF800B0B6
:101580006946D94806F02CFA4CF2337000900220DC
:101590008DF804008DF8064003208DF80500012029
:1015A0008DF807006946D14806F01AFA4FF68070A8
:1015B000009002208DF804008DF8064003208DF87D
:1015C00005000120CA4D8DF807006946284606F03F
:1015D00007FAA814009002208DF804008DF8064048
:1015E00003208DF805000120C24E8DF807006946E2
:1015F000304606F0F5F9A814009002208DF804009A
:101600008DF8064003208DF805000120BA4F8DF8B3
:1016100007006946384606F0E3F90C220021B3487A
:1016200006F052FA0C220121B04806F04DFA0C22C5
:101630000421AE4806F048FA0C220521AB4806F01A
:1016400043FA0C220821A94806F03EFA0C2209218F
:10165000A64806F039FA0C220A21A44806F034FA0A
:101660000C220E21A14806F02FFA0C220F219F48D0
:1016700006F02AFA0C220721284606F025FA0C2249
:101680000821284606F020FA0C220921284606F0F7
:101690001BFA0C220A21284606F016FA0C220B210E
:1016A000284606F011FA0C221146284606F00CFADC
:1016B0000C220D21284606F007FA0C220E2128469E
:1016C00006F002FA0C220F21284606F0FDF90C2242
:1016D0001146304606F0F8F90C221146384606F05D
:1016E000F3F90F20CDE911043C20CDE91304159442
:1016F00009201694CDE917400820CDE919401B9424
:101700001C940620CDE902041D941E941020CDE9FE
:10171000044006940002CDE90A4008940794800032
:10172000CDE90C40099411A8CDE90E4018A81090FD
:1017300002A806F002FA0121062006F077FA32200C
:1017400004F0B9FD01210020FFF704FA322004F073
:10175000B2FD0020FFF704FA624A4FF020494FF62D
:10176000FF7A908049F2413545F2103645F2105427
:1017700041F6631846F60407FF2804D3504502D00B
:10178000B0F5134F75D1D320FFF7C2F9FFF7D8F9A1
:101790009080FFF7D5F99080FFF7D2F90AEA002090
:1017A000D4469080FFF7CCF9918808439080A842F6
:1017B0005FD0BF20FFF7ACF9FFF7C2F99080FFF7C9
:1017C000BFF99080FFF7BCF99080FFF7B9F90CEAF8
:1017D00000209080FFF7B4F9918808439080B842C8
:1017E00047D0D420FFF794F9FFF7AAF99080FFF7CC
:1017F000A7F99080FFF7A4F90CEA00209080FFF78A
:101800009FF9918808439080B04232D04FF45A40FB
:10181000FFF77EF9FFF794F990804FF45B40FFF7F4
:1018200077F9FFF78DF90CEA002090804FF45C40C7
:10183000FFF76EF9FFF784F99188084390805845C7
:1018400001D194801EE0A04213D0A120FFF760F9DF
:10185000FFF776F99080FFF773F90CEA002090808B
:10186000FFF76EF991880843A0F5AE419080613989
:1018700020D080B2A84205D0B04203D0A04201D00F
:1018800040451AD1D9F81C11484621F00F01C9F87A
:101890001C11D9F81C1121F47061C9F81C11D9F878
:1018A0001C1141F00301C9F81C11D9F81C1141F4B5
:1018B00000712DE0A2F80480E4E7B84203D0A0F55F
:1018C0004541053926D1D9F81C11484621F00F01B0
:1018D000C9F81C11D9F81C1121F47061C9F81C1148
:1018E0000CE000009023002000040240000C0240A5
:1018F000001002400014024000180240D9F81C11E8
:1019000041F00A01C9F81C11D9F81C1141F44061D9
:10191000C0F81C1191469188FEA017F00FFDB9F890
:101920000400A8427ED1CF20FFF7F2F80020FFF795
:10193000FBF8C120FFF7F8F83020FFF7F5F8ED20AD
:10194000FFF7E6F86420FFF7EFF80320FFF7ECF865
:101950001220FFF7E9F88120FFF7E6F8E820FFF70B
:10196000D7F88520FFF7E0F81020FFF7DDF87A20A0
:10197000FFF7DAF8CB20FFF7CBF83920FFF7D4F8E0
:101980002C20FFF7D1F80020FFF7CEF83420FFF726
:10199000CBF80220FFF7C8F8F720FFF7B9F82020AE
:1019A000FFF7C2F8EA20FFF7B3F80020FFF7BCF812
:1019B0000020FFF7B9F8C020FFF7AAF81B20FFF7B7
:1019C000B3F8C120FFF7A4F80120FFF7ADF8C52058
:1019D000FFF79EF83020FFF7A7F83020FFF7A4F8B4
:1019E000C720FFF795F8B720FFF79EF83620FFF7DE
:1019F0008FF84820FFF798F83A20FFF789F855202C
:101A0000FFF792F8B120FFF783F80020FFF78CF87A
:101A10001A20FFF789F8B620FFF77AF80A20FFF7B7
:101A200083F800E090E0A220FFF77EF8F220FFF7B5
:101A30006FF80020FFF778F82620FFF769F80120FB
:101A4000FFF772F8E020FFF763F80F20FFF76CF85C
:101A50002A20FFF769F82820FFF766F80820FFF72B
:101A600063F80E20FFF760F80820FFF75DF85420B8
:101A7000FFF75AF8A920FFF757F84320FFF754F86B
:101A80000A20FFF751F80F20FFF74EF80020FFF76C
:101A90004BF80020FFF748F80020FFF745F800203A
:101AA000FFF742F8E120FFF733F80020FFF73CF89A
:101AB0001520FFF739F81720FFF736F80720FFF752
:101AC00033F81120FFF730F80620FFF72DF82B2010
:101AD000FFF72AF85620FFF727F83C20FFF724F8F5
:101AE0000520FFF721F81020FFF71EF80F20FFF761
:101AF0001BF83F20FFF718F83F20FFF715F80F20DD
:101B0000FFF712F82B20FFF703F80020FFF70CF87F
:101B10000020FFF709F80120FFF706F83F20FFF744
:101B200003F82A20FEF7F4FF0020FEF7FDFF002057
:101B3000FEF7FAFF0020FEF7F7FFEF20FEF7F4FFB5
:101B40001120FEF7E5FFA5E0B8427CD11120FEF799
:101B5000DFFF142004F0AFFBD020FEF7D9FF0720F1
:101B6000FEF7E2FF4220FEF7DFFF1D20FEF7DCFF5D
:101B7000D120FEF7CDFF0020FEF7D6FF1A20FEF79A
:101B8000D3FF0920FEF7D0FFD220FEF7C1FF0120CE
:101B9000FEF7CAFF2220FEF7C7FFC020FEF7B8FFFE
:101BA0001020FEF7C1FF3B20FEF7BEFF0020FEF72E
:101BB000BBFF0220FEF7B8FF1120FEF7B5FFC520DE
:101BC000FEF7A6FF0320FEF7AFFFC820FEF7A0FF39
:101BD0000020FEF7A9FF2520FEF7A6FF2120FEF733
:101BE000A3FF0520FEF7A0FF0020FEF79DFF0A20BF
:101BF000FEF79AFF6520FEF797FF2520FEF794FF7A
:101C00007720FEF791FF5020FEF78EFF0F20FEF7A2
:101C10008BFF0020FEF788FFF820FEF779FF0120F8
:101C2000FEF782FFFE20FEF773FF0020FEF77CFF29
:101C30000220FEF779FF2020FEF76AFF3620FEF72C
:101C400067FF082000E02BE0FEF76EFF3A20FEF76A
:101C50005FFF5520FEF768FF2B20FEF759FF00209D
:101C6000FEF762FF0020FEF75FFF0120FEF75CFF3A
:101C70003F20FEF759FF2A20FEF74AFF0020FEF71B
:101C800053FF0020FEF750FF0120FEF74DFFDF203D
:101C9000FEF74AFF782004F00EFB292001F004BF74
:101CA000B0427CD1ED20FEF733FF0120FEF73CFF70
:101CB000FE20FEF739FFEE20FEF72AFFDE20FEF7BA
:101CC00033FF2120FEF730FFF120FEF721FF012036
:101CD000FEF72AFFDF20FEF71BFF1020FEF724FF90
:101CE000C420FEF715FF8F20FEF71EFFC620FEF76B
:101CF0000FFF0020FEF718FFE220FEF715FFE2209D
:101D0000FEF712FFE220FEF70FFFBF20FEF700FFF5
:101D1000AA2007E0204C43442049443A25780D0A84
:101D200000000000FEF700FFB020FEF7F1FE0D20DE
:101D3000FEF7FAFE0020FEF7F7FE0D20FEF7F4FE98
:101D40000020FEF7F1FE1120FEF7EEFE0020FEF768
:101D5000EBFE1920FEF7E8FE0020FEF7E5FE21204D
:101D6000FEF7E2FE0020FEF7DFFE2D20FEF7DCFE90
:101D70000020FEF7D9FE3D20FEF7D6FE0020FEF73C
:101D8000D3FE5D20FEF7D0FE0020FEF7CDFE5D20E5
:101D9000FEF7CAFE0020FEF7C7FEB12000E0FCE31C
:101DA000FEF7B6FE8020FEF7BFFE0020FEF7BCFE69
:101DB0008B20FEF7B9FE0020FEF7B6FE9620FEF758
:101DC000B3FE0020FEF7B0FEB220FEF7A1FE002019
:101DD000FEF7AAFE0020FEF7A7FE0220FEF7A4FEF3
:101DE0000020FEF7A1FE0320FEF79EFE0020FEF776
:101DF0009BFEB320FEF78CFE0020FEF795FE002030
:101E0000FEF792FE0020FEF78FFE0020FEF78CFE0C
:101E10000020FEF789FE0020FEF786FE0020FEF778
:101E200083FE0020FEF780FE0020FEF77DFE0020EE
:101E3000FEF77AFE0020FEF777FE0020FEF774FE24
:101E40000020FEF771FE0020FEF76EFE0020FEF778
:101E50006BFE0020FEF768FE0020FEF765FE002006
:101E6000FEF762FE0020FEF75FFE0020FEF75CFE3C
:101E70000020FEF759FE0020FEF756FE0020FEF778
:101E800053FE0020FEF750FEB420FEF741FE8B20EB
:101E9000FEF74AFE0020FEF747FE9620FEF744FEBE
:101EA0000020FEF741FEA120FEF73EFE0020FEF7D7
:101EB0003BFEB520FEF72CFE0220FEF735FE00208B
:101EC000FEF732FE0320FEF72FFE0020FEF72CFE69
:101ED0000420FEF729FE0020FEF726FEB620FEF7BE
:101EE00017FE0020FEF720FE0020FEF71DFEB720A3
:101EF000FEF70EFE0020FEF717FE0020FEF714FE90
:101F00003F20FEF711FE0020FEF70EFE5E20FEF7DA
:101F10000BFE0020FEF708FE6420FEF705FE002001
:101F2000FEF702FE8C20FEF7FFFD0020FEF7FCFD11
:101F3000AC20FEF7F9FD0020FEF7F6FDDC20FEF7F1
:101F4000F3FD0020FEF7F0FD7020FEF7EDFD002010
:101F5000FEF7EAFD9020FEF7E7FD0020FEF7E4FD26
:101F6000EB20FEF7E1FD0020FEF7DEFDDC20FEF7B2
:101F7000DBFD0020FEF7D8FDB820FEF7C9FD0020EC
:101F8000FEF7D2FD0020FEF7CFFD0020FEF7CCFDCE
:101F90000020FEF7C9FD0020FEF7C6FD0020FEF779
:101FA000C3FD0020FEF7C0FD0020FEF7BDFDBA20F6
:101FB000FEF7AEFD2420FEF7B7FD0020FEF7B4FDCE
:101FC0000020FEF7B1FD0020FEF7AEFDC120FEF7B8
:101FD0009FFD2020FEF7A8FD0020FEF7A5FD542060
:101FE000FEF7A2FD0020FEF79FFDFF20FEF79CFDFF
:101FF0000020FEF799FDC220FEF78AFD0A20FEF7B9
:1020000093FD0020FEF790FD0420FEF78DFD0020DB
:10201000FEF78AFDC320FEF77BFD3C20FEF784FD22
:102020000020FEF781FD3A20FEF77EFD0020FEF73E
:102030007BFD3920FEF778FD0020FEF775FD372087
:10204000FEF772FD0020FEF76FFD3C20FEF76CFDF1
:102050000020FEF769FD3620FEF766FD0020FEF742
:1020600063FD3220FEF760FD0020FEF75DFD2F20AE
:10207000FEF75AFD0020FEF757FD2C20FEF754FD19
:102080000020FEF751FD2920FEF74EFD0020FEF74F
:102090004BFD2620FEF748FD0020FEF745FD2420DD
:1020A000FEF742FD0020FEF73FFD2420FEF73CFD39
:1020B0000020FEF739FD2320FEF736FD0020FEF755
:1020C00033FD3C20FEF730FD0020FEF72DFD3620CD
:1020D000FEF72AFD0020FEF727FD3220FEF724FD43
:1020E0000020FEF721FD2F20FEF71EFD0020FEF749
:1020F0001BFD2C20FEF718FD0020FEF715FD292002
:10210000FEF712FD0020FEF70FFD2620FEF70CFD66
:102110000020FEF709FD2420FEF706FD0020FEF753
:1021200003FD2420FEF700FD0020FEF7FDFC232028
:10213000FEF7FAFC0020FEF7F7FCC420FEF7E8FCEF
:102140006220FEF7F1FC0020FEF7EEFC0520FEF712
:10215000EBFC0020FEF7E8FC8420FEF7E5FC002005
:10216000FEF7E2FCF020FEF7DFFC0020FEF7DCFCCF
:102170001820FEF7D9FC0020FEF7D6FCA420FEF7BD
:10218000D3FC0020FEF7D0FC1820FEF7CDFC002089
:10219000FEF7CAFC5020FEF7C7FC0020FEF7C4FC87
:1021A0000C20FEF7C1FC0020FEF7BEFC1720FEF756
:1021B000BBFC0020FEF7B8FC9520FEF7B5FC002024
:1021C000FEF7B2FCF320FEF7AFFC0020FEF7ACFCFC
:1021D000E620FEF7A9FC0020FEF7A6FCC520FEF7CE
:1021E00097FC3220FEF7A0FC0020FEF79DFC442067
:1021F000FEF79AFC0020FEF797FC6520FEF794FCA2
:102200000020FEF791FC7620FEF78EFC0020FEF702
:102210008BFC8820FEF788FC0020FEF785FCC6209A
:10222000FEF776FC2020FEF77FFC0020FEF77CFC0A
:102230001720FEF779FC0020FEF776FC0120FEF760
:1022400073FC0020FEF770FCC720FEF761FC002045
:10225000FEF76AFC0020FEF767FC0020FEF764FC36
:102260000020FEF761FCC820FEF752FC0020FEF7BC
:102270005BFC0020FEF758FC0020FEF755FC002018
:10228000FEF752FCC920FEF743FC0020FEF74CFC91
:102290000020FEF749FC0020FEF746FC0020FEF778
:1022A00043FC0020FEF740FC0020FEF73DFC002030
:1022B000FEF73AFC0020FEF737FC0020FEF734FC66
:1022C0000020FEF731FC0020FEF72EFC0020FEF778
:1022D0002BFC0020FEF728FC0020FEF725FC002048
:1022E000FEF722FC0020FEF71FFCE020FEF710FCAA
:1022F0001620FEF719FC0020FEF716FC1C20FEF746
:1023000013FC0020FEF710FC2120FEF70DFC00203E
:10231000FEF70AFC3620FEF707FC0020FEF704FC5F
:102320004620FEF701FC0020FEF7FEFB5220FEF7E0
:10233000FBFB0020FEF7F8FB6420FEF7F5FB002016
:10234000FEF7F2FB7A20FEF7EFFB0020FEF7ECFB36
:102350008B20FEF7E9FB0020FEF7E6FB9920FEF755
:10236000E3FB0020FEF7E0FBA820FEF7DDFB0020EA
:10237000FEF7DAFBB920FEF7D7FB0020FEF7D4FB0F
:10238000C420FEF7D1FB0020FEF7CEFBCA20FEF7EB
:10239000CBFB0020FEF7C8FBD220FEF7C5FB0020D8
:1023A000FEF7C2FBD920FEF7BFFB0020FEF7BCFB07
:1023B000E020FEF7B9FB0020FEF7B6FBF320FEF7A6
:1023C000B3FB0020FEF7B0FBE120FEF7A1FB1620D7
:1023D000FEF7AAFB0020FEF7A7FB1C20FEF7A4FBDC
:1023E0000020FEF7A1FB2220FEF79EFB0020FEF757
:1023F0009BFB3620FEF798FB0020FEF795FB45205F
:10240000FEF792FB0020FEF78FFB5220FEF78CFBBD
:102410000020FEF789FB6420FEF786FB0020FEF714
:1024200083FB7A20FEF780FB0020FEF77DFB8B20EC
:10243000FEF77AFB0020FEF777FB9920FEF774FB8E
:102440000020FEF771FBA820FEF76EFB0020FEF7D0
:102450006BFBB920FEF768FB0020FEF765FBC4208C
:10246000FEF762FB0020FEF75FFBCA20FEF75CFB75
:102470000020FEF759FBD220FEF756FB0020FEF7A6
:1024800053FBD820FEF750FB0020FEF74DFBE02069
:10249000FEF74AFB0020FEF747FBF320FEF744FB64
:1024A0000020FEF741FBE220FEF732FB0520FEF79D
:1024B0003BFB0020FEF738FB0B20FEF735FB00202E
:1024C000FEF732FB1B20FEF72FFB0020FEF72CFB54
:1024D0003420FEF729FB0020FEF726FB4420FEF700
:1024E00023FB0020FEF720FB4F20FEF71DFB002002
:1024F000FEF71AFB6120FEF717FB0020FEF714FB26
:102500007920FEF711FB0020FEF70EFB8820FEF776
:102510000BFB0020FEF708FB9720FEF705FB0020D1
:10252000FEF702FBA620FEF7FFFA0020FEF7FCFAFA
:10253000B720FEF7F9FA0020FEF7F6FAC220FEF700
:10254000F3FA0020FEF7F0FAC720FEF7EDFA0020BC
:10255000FEF7EAFAD120FEF7E7FA0020FEF7E4FAE8
:10256000D620FEF7E1FA0020FEF7DEFADD20FEF7C6
:10257000DBFA0020FEF7D8FAF320FEF7D5FA0020A8
:10258000FEF7D2FAE320FEF7C3FA0520FEF7CCFAF5
:102590000020FEF7C9FA0A2000E006E3FEF7C4FABD
:1025A0000020FEF7C1FA1C20FEF7BEFA0020FEF75D
:1025B000BBFA3320FEF7B8FA0020FEF7B5FA442044
:1025C000FEF7B2FA0020FEF7AFFA5020FEF7ACFAA1
:1025D0000020FEF7A9FA6220FEF7A6FA0020FEF717
:1025E000A3FA7820FEF7A0FA0020FEF79DFA8820D3
:1025F000FEF79AFA0020FEF797FA9720FEF794FA72
:102600000020FEF791FAA620FEF78EFA0020FEF7D2
:102610008BFAB720FEF788FA0020FEF785FAC22071
:10262000FEF782FA0020FEF77FFAC720FEF77CFA59
:102630000020FEF779FAD120FEF776FA0020FEF7A7
:1026400073FAD520FEF770FA0020FEF76DFADD2050
:10265000FEF76AFA0020FEF767FAF320FEF764FA45
:102660000020FEF761FAE420FEF752FA0120FEF79F
:102670005BFA0020FEF758FA0120FEF755FA002019
:10268000FEF752FA0220FEF74FFA0020FEF74CFA4E
:102690002A20FEF749FA0020FEF746FA3C20FEF712
:1026A00043FA0020FEF740FA4B20FEF73DFA0020E7
:1026B000FEF73AFA5D20FEF737FA0020FEF734FA0B
:1026C0007420FEF731FA0020FEF72EFA8420FEF780
:1026D0002BFA0020FEF728FA9320FEF725FA0020B7
:1026E000FEF722FAA220FEF71FFA0020FEF71CFADE
:1026F000B320FEF719FA0020FEF716FABE20FEF707
:1027000013FA0020FEF710FAC420FEF70DFA00209D
:10271000FEF70AFACD20FEF707FA0020FEF704FACA
:10272000D320FEF701FA0020FEF7FEF9DD20FEF7C8
:10273000FBF90020FEF7F8F9F320FEF7F5F9002089
:10274000FEF7F2F9E520FEF7E3F90020FEF7ECF9D9
:102750000020FEF7E9F90020FEF7E6F90020FEF779
:10276000E3F90220FEF7E0F90020FEF7DDF9292069
:10277000FEF7DAF90020FEF7D7F93C20FEF7D4F98E
:102780000020FEF7D1F94B20FEF7CEF90020FEF72E
:10279000CBF95D20FEF7C8F90020FEF7C5F97420DB
:1027A000FEF7C2F90020FEF7BFF98420FEF7BCF95E
:1027B0000020FEF7B9F99320FEF7B6F90020FEF7E6
:1027C000B3F9A220FEF7B0F90020FEF7ADF9B3206F
:1027D000FEF7AAF90020FEF7A7F9BE20FEF7A4F93C
:1027E0000020FEF7A1F9C420FEF79EF90020FEF7B5
:1027F0009BF9CD20FEF798F90020FEF795F9D3203C
:10280000FEF792F90020FEF78FF9DC20FEF78CF935
:102810000020FEF789F9F320FEF786F90020FEF785
:1028200083F9E620FEF774F91120FEF77DF9002008
:10283000FEF77AF93420FEF777F90020FEF774F9F5
:102840005620FEF771F90020FEF76EF97620FEF7AC
:102850006BF90020FEF768F97720FEF765F9002094
:10286000FEF762F96620FEF75FF90020FEF75CF9DB
:102870008820FEF759F90020FEF756F99920FEF757
:1028800053F90020FEF750F9BB20FEF74DF9002068
:10289000FEF74AF99920FEF747F90020FEF744F9C0
:1028A0006620FEF741F90020FEF73EF95520FEF7BD
:1028B0003BF90020FEF738F95520FEF735F90020E6
:1028C000FEF732F94520FEF72FF90020FEF72CF92C
:1028D0004320FEF729F90020FEF726F94420FEF7F1
:1028E00023F90020FEF720F9E720FEF711F9322046
:1028F000FEF71AF90020FEF717F95520FEF714F934
:102900000020FEF711F97620FEF70EF90020FEF701
:102910000BF96620FEF708F90020FEF705F967209D
:10292000FEF702F90020FEF7FFF86720FEF7FCF83B
:102930000020FEF7F9F88720FEF7F6F80020FEF7F2
:10294000F3F89920FEF7F0F80020FEF7EDF8BB2031
:10295000FEF7EAF80020FEF7E7F89920FEF7E4F822
:102960000020FEF7E1F87720FEF7DEF80020FEF702
:10297000DBF84420FEF7D8F80020FEF7D5F8562003
:10298000FEF7D2F80020FEF7CFF82320FEF7CCF8B0
:102990000020FEF7C9F83320FEF7C6F80020FEF746
:1029A000C3F84520FEF7C0F80020FEF7BDF8E82088
:1029B000FEF7AEF80020FEF7B7F80020FEF7B4F8F7
:1029C0009920FEF7B1F80020FEF7AEF88720FEF759
:1029D000ABF80020FEF7A8F88820FEF7A5F8002045
:1029E000FEF7A2F87720FEF79FF80020FEF79CF88C
:1029F0006620FEF799F80020FEF796F88820FEF78B
:102A000093F80020FEF790F8AA20FEF78DF800203A
:102A1000FEF78AF8BB20FEF787F80020FEF784F85F
:102A20009920FEF781F80020FEF77EF86620FEF779
:102A30007BF80020FEF778F85520FEF775F80020A7
:102A4000FEF772F85520FEF76FF80020FEF76CF8DD
:102A50004420FEF769F80020FEF766F84420FEF7F0
:102A600063F80020FEF760F85520FEF75DF80020BF
:102A7000FEF75AF8E920FEF74BF8AA20FEF754F8C3
:102A80000020FEF751F80020FEF74EF80020FEF778
:102A90004BF80020FEF73CF8AA20FEF745F8CF20BF
:102AA000FEF736F80020FEF73FF80020FEF73CF86E
:102AB0000020FEF739F80020FEF736F80020FEF778
:102AC00033F80020FEF730F80020FEF72DF8002044
:102AD000FEF72AF80020FEF727F80020FEF724F87A
:102AE0000020FEF721F80020FEF71EF80020FEF778
:102AF0001BF80020FEF718F80020FEF715F800205C
:102B0000FEF712F80020FEF70FF8F020FEF700F8AD
:102B10000020FEF709F85020FEF706F80020FEF727
:102B200003F80020FEF700F80020FDF7FDFFF3207A
:102B3000FDF7EEFF0020FDF7F7FFF920FDF7E8FFB6
:102B40000620FDF7F1FF1020FDF7EEFF2920FDF72D
:102B5000EBFF0020FDF7E8FF3A20FDF7D9FF5520F5
:102B6000FDF7E2FF1120FDF7D3FF642003F0A3FB84
:102B70002920FDF7CDFF3520FDF7CAFF0020FDF726
:102B8000D3FF5120FDF7C4FFFF20FDF7CDFF5320F9
:102B9000FDF7BEFF2C20FDF7C7FF5520FDF7B8FF5E
:102BA0008220FDF7C1FF2C20FDE3A0427ED14FF42F
:102BB000704355211846FDF7CDFF4FF20104AA21BD
:102BC0002046FDF7C7FF651C52212846FDF7C2FFCE
:102BD000A61C08213046FDF7BDFFE71C0121384641
:102BE000FDF7B8FF0D214FF43040FDF7B3FF0D2185
:102BF0004BF20100FDF7AEFF0D214BF20200FDF795
:102C0000A9FF4FF4364C34216046FDF7A3FF342171
:102C10004BF20160FDF79EFF34214BF20260FDF79D
:102C200099FF4FF431480D214046FDF793FF4BF2D9
:102C300001190D214846FDF78DFF0D214BF20210C1
:102C4000FDF788FF4FF4374B34215846FDF782FFDC
:102C500034214BF20170FDF77DFF34214BF20270FD
:102C6000FDF778FF00214FF43240FDF773FF00219C
:102C70004BF20120FDF76EFF00214BF20220FDF721
:102C800069FF24214FF43840FDF764FF24214BF6FF
:102C90000100FDF75FFF24214BF60200FDF75AFF0C
:102CA00001214FF43F40FDF755FF00E0FEE30F2107
:102CB0004FF43340FDF74EFF0F214BF20130FDF78B
:102CC00049FF0F214BF20230FDF744FF34214FF44E
:102CD0003940FDF73FFF34214BF60110FDF73AFF75
:102CE00034214BF60210FDF735FF08214FF4354033
:102CF000FDF730FF08214BF20150FDF72BFF0821B3
:102D00004BF20250FDF726FF03214FF44240FDF73E
:102D100021FF24214FF43A40FDF71CFF24214BF6FC
:102D20000120FDF717FF24214BF60220FDF712FFCB
:102D300000214FF43C40FDF70DFF78214BF6014098
:102D4000FDF708FF00214BF60240FDF703FF0021CD
:102D50004FF43D40FDF7FEFE78214BF60150FDF7A4
:102D6000F9FE00214BF60250FDF7F4FE00214FF46E
:102D70003E40FDF7EFFE64214BF60160FDF7EAFEF1
:102D800000214FF45140FDF7E5FE33214DF20110D3
:102D9000FDF7E0FE00214DF20210FDF7DBFE3421CD
:102DA0004DF20310FDF7D6FE00214DF20410FDF7A1
:102DB000D1FE3A214DF20510FDF7CCFE00214DF277
:102DC0000610FDF7C7FE4A214DF20710FDF7C2FEBF
:102DD00000214DF20810FDF7BDFE5C214DF20910F7
:102DE000FDF7B8FE00214DF20A10FDF7B3FE812178
:102DF0004DF20B10FDF7AEFE00214DF20C10FDF769
:102E0000A9FEA6214DF20D10FDF7A4FE00214DF202
:102E10000E10FDF79FFEE5214DF20F10FDF79AFE13
:102E200001214DF21010FDF795FE13214DF2111006
:102E3000FDF790FE01214DF21210FDF78BFE54219B
:102E40004DF21310FDF786FE01214DF21410FDF72F
:102E500081FE82214DF21510FDF77CFE01214DF21D
:102E60001610FDF777FECA214DF21710FDF772FE1E
:102E700002214DF21810FDF76DFE00214DF21910E0
:102E8000FDF768FE02214DF21A10FDF763FE0121E5
:102E90004DF21B10FDF75EFE02214DF21C10FDF7F6
:102EA00059FE34214DF21D10FDF754FE02214DF262
:102EB0001E10FDF74FFE67214DF21F10FDF74AFE71
:102EC00002214DF22010FDF745FE84214DF2211024
:102ED000FDF740FE02214DF22210FDF73BFEA4213A
:102EE0004DF22310FDF736FE02214DF22410FDF7BE
:102EF00031FEB7214DF22510FDF72CFE02214DF2D7
:102F00002610FDF727FECF214DF22710FDF722FEF8
:102F100002214DF22810FDF71DFEDE214DF2291091
:102F2000FDF718FE02214DF22A10FDF713FEF221E3
:102F30004DF22B10FDF70EFE02214DF22C10FDF785
:102F400009FEFE214DF22D10FDF704FE03214DF286
:102F50002E10FDF7FFFD10214DF22F10FDF7FAFDA9
:102F600003214DF23010FDF7F5FD33214DF2311004
:102F7000FDF7F0FD03214DF23210FDF7EBFD6D2161
:102F80004DF23310FDF7E6FD00214FF45240FDF7FE
:102F9000E1FD33214DF20120FDF7DCFD00214DF272
:102FA0000220FDF7D7FD34214DF20320FDF7D2FDBD
:102FB00000214DF20420FDF7CDFD3A214DF2052010
:102FC000FDF7C8FD00214DF20620FDF7C3FD4A21A3
:102FD0004DF20720FDF7BEFD00214DF20820FDF760
:102FE000B9FD5C214DF20920FDF7B4FD00214DF241
:102FF0000A20FDF7AFFD81214DF20B20FDF7AAFD60
:1030000000214DF20C20FDF7A5FDA6214DF20D206B
:10301000FDF7A0FD00214DF20E20FDF79BFDE521FF
:103020004DF20F20FDF796FD01214DF21020FDF726
:1030300091FD13214DF21120FDF78CFD01214DF280
:103040001220FDF787FD54214DF21320FDF782FD7C
:1030500001214DF21420FDF77DFD82214DF2152056
:10306000FDF778FD01214DF21620FDF773FDCA2111
:103070004DF21720FDF76EFD02214DF21820FDF7ED
:1030800069FD00214DF21920FDF764FD02214DF28A
:103090001A20FDF75FFD01214DF21B20FDF75AFDBF
:1030A00002214DF21C20FDF755FD34214DF21D206B
:1030B000FDF750FD02214DF21E20FDF74BFD67216B
:1030C0004DF21F20FDF746FD02214DF22020FDF7B5
:1030D00041FD84214DF22120FDF73CFD02214DF2FE
:1030E0002220FDF737FDA4214DF22320FDF732FD0C
:1030F00002214DF22420FDF72DFDB7214DF22520B0
:10310000FDF728FD02214DF22620FDF723FDCF21FA
:103110004DF22720FDF71EFD02214DF22820FDF77C
:1031200019FDDE214DF22920FDF714FD02214DF29B
:103130002A20FDF70FFDF2214DF22B20FDF70AFDAD
:1031400002214DF22C20FDF705FDFE214DF22D2030
:10315000FDF700FD03214DF22E20FDF7FBFC1021B1
:103160004DF22F20FDF7F6FC03214DF23020FDF744
:10317000F1FC33214DF23120FDF7ECFC03214DF23F
:103180003220FDF7E7FC6D214DF23320FDF7E2FC24
:1031900000214FF45340FDF7DDFC33214DF20130A7
:1031A000FDF7D8FC00214DF20230FDF7D3FC3421AD
:1031B0004DF20330FDF7CEFC00214DF20430FDF757
:1031C000C9FC3A214DF20530FDF7C4FC00214DF257
:1031D0000630FDF7BFFC4A214DF20730FDF7BAFC7F
:1031E00000214DF20830FDF7B5FC5C214DF20930AD
:1031F000FDF7B0FC00214DF20A30FDF7ABFC812158
:103200004DF20B30FDF7A6FC00214DF20C30FDF71E
:10321000A1FCA6214DF20D30FDF79CFC00214DF2E2
:103220000E30FDF797FCE5214DF20F30FDF792FCD3
:1032300001214DF21030FDF78DFC13214DF21130BC
:10324000FDF788FC01214DF21230FDF783FC54217B
:103250004DF21330FDF77EFC01214DF21430FDF7E5
:1032600079FC82214DF21530FDF774FC01214DF2FD
:103270001630FDF76FFCCA214DF21730FDF76AFCDE
:1032800002214DF21830FDF765FC00214DF2193096
:10329000FDF760FC02214DF21A30FDF75BFC0121C5
:1032A0004DF21B30FDF756FC02214DF21C30FDF7AC
:1032B00051FC34214DF21D30FDF74CFC02214DF242
:1032C0001E30FDF747FC67214DF21F30FDF742FC31
:1032D00002214DF22030FDF73DFC84214DF22130DA
:1032E000FDF738FC02214DF22230FDF733FCA4211A
:1032F0004DF22330FDF72EFC02214DF22430FDF774
:1033000029FCB7214DF22530FDF724FC02214DF2B6
:103310002630FDF71FFCCF214DF22730FDF71AFCB8
:1033200002214DF22830FDF715FCDE214DF2293047
:10333000FDF710FC02214DF22A30FDF70BFCF221C3
:103340004DF22B30FDF706FC02214DF22C30FDF73B
:1033500001FCFE214DF22D30FDF7FCFB03214DF267
:103360002E30FDF7F7FB10214DF22F30FDF7F2FB69
:1033700003214DF23030FDF7EDFB33214DF23130BA
:10338000FDF7E8FB03214DF23230FDF7E3FB6D2141
:103390004DF23330FDF7DEFB00214FF45440FDF7D2
:1033A000D9FB332100E07FE34DF20140FDF7D2FB72
:1033B00000214DF20240FDF7CDFB34214DF20340D8
:1033C000FDF7C8FB00214DF20440FDF7C3FB3A2195
:1033D0004DF20540FDF7BEFB00214DF20640FDF722
:1033E000B9FB4A214DF20740FDF7B4FB00214DF235
:1033F0000840FDF7AFFB5C214DF20940FDF7AAFB49
:1034000000214DF20A40FDF7A5FB81214DF20B4052
:10341000FDF7A0FB00214DF20C40FDF79BFBA62120
:103420004DF20D40FDF796FB00214DF20E40FDF7E9
:1034300091FBE5214DF20F40FDF78CFB01214DF290
:103440001040FDF787FB13214DF21140FDF782FB81
:1034500001214DF21240FDF77DFB54214DF2134046
:10346000FDF778FB01214DF21440FDF773FB82213B
:103470004DF21540FDF76EFB01214DF21640FDF7B0
:1034800069FBCA214DF21740FDF764FB02214DF2A2
:103490001840FDF75FFB00214DF21940FDF75AFB84
:1034A00002214DF21A40FDF755FB00E0FFE2012139
:1034B0004DF21B40FDF74EFB02214DF21C40FDF783
:1034C00049FB34214DF21D40FDF744FB02214DF232
:1034D0001E40FDF73FFB67214DF21F40FDF73AFB11
:1034E00002214DF22040FDF735FB84214DF22140B1
:1034F000FDF730FB02214DF22240FDF72BFBA4210A
:103500004DF22340FDF726FB02214DF22440FDF74A
:1035100021FBB7214DF22540FDF71CFB02214DF2A6
:103520002640FDF717FBCF214DF22740FDF712FB98
:1035300002214DF22840FDF70DFBDE214DF229401E
:10354000FDF708FB02214DF22A40FDF703FBF221B3
:103550004DF22B40FDF7FEFA02214DF22C40FDF713
:10356000F9FAFE214DF22D40FDF7F4FA03214DF258
:103570002E40FDF7EFFA10214DF22F40FDF7EAFA49
:1035800003214DF23040FDF7E5FA33214DF2314091
:10359000FDF7E0FA03214DF23240FDF7DBFA6D2131
:1035A0004DF23340FDF7D6FA00214FF45540FDF7B8
:1035B000D1FA33214DF20150FDF7CCFA00214DF242
:1035C0000250FDF7C7FA34214DF20350FDF7C2FA5D
:1035D00000214DF20450FDF7BDFA3A214DF205509D
:1035E000FDF7B8FA00214DF20650FDF7B3FA4A2173
:1035F0004DF20750FDF7AEFA00214DF20850FDF7ED
:10360000A9FA5C214DF20950FDF7A4FA00214DF210
:103610000A50FDF79FFA81214DF20B50FDF79AFAFF
:1036200000214DF20C50FDF795FAA6214DF20D50F8
:10363000FDF790FA00214DF20E50FDF78BFAE521CF
:103640004DF20F50FDF786FA01214DF21050FDF7B3
:1036500081FA13214DF21150FDF77CFA01214DF250
:103660001250FDF777FA54214DF21350FDF772FA1C
:1036700001214DF21450FDF76DFA82214DF21550E3
:10368000FDF768FA01214DF21650FDF763FACA21E1
:103690004DF21750FDF75EFA02214DF21850FDF77A
:1036A00059FA00214DF21950FDF754FA02214DF25A
:1036B0001A50FDF74FFA01214DF21B50FDF74AFA5F
:1036C00002214DF21C50FDF745FA34214DF21D50F8
:1036D000FDF740FA02214DF21E50FDF73BFA67213B
:1036E0004DF21F50FDF736FA02214DF22050FDF742
:1036F00031FA84214DF22150FDF72CFA02214DF2CE
:103700002250FDF727FAA4214DF22350FDF722FAAB
:1037100002214DF22450FDF71DFAB7214DF225503C
:10372000FDF718FA02214DF22650FDF713FACF21CA
:103730004DF22750FDF70EFA02214DF22850FDF709
:1037400009FADE214DF22950FDF704FA02214DF26B
:103750002A50FDF7FFF9F2214DF22B50FDF7FAF94F
:1037600002214DF22C50FDF7F5F9FE214DF22D50BE
:10377000FDF7F0F903214DF22E50FDF7EBF9102182
:103780004DF22F50FDF7E6F903214DF23050FDF7D1
:10379000E1F933214DF23150FDF7DCF903214DF20F
:1037A0003250FDF7D7F96D214DF23350FDF7D2F9C4
:1037B00000214FF45640FDF7CDF933214DF2016061
:1037C000FDF7C8F900214DF20260FDF7C3F934217D
:1037D0004DF20360FDF7BEF900214DF20460FDF7E4
:1037E000B9F93A214DF20560FDF7B4F900214DF227
:1037F0000660FDF7AFF94A214DF20760FDF7AAF91F
:1038000000214DF20860FDF7A5F95C214DF2096039
:10381000FDF7A0F900214DF20A60FDF79BF9812127
:103820004DF20B60FDF796F900214DF20C60FDF7AB
:1038300091F9A6214DF20D60FDF78CF900214DF2B2
:103840000E60FDF787F9E5214DF20F60FDF782F973
:1038500001214DF21060FDF77DF913214DF2116049
:10386000FDF778F901214DF21260FDF773F954214B
:103870004DF21360FDF76EF901214DF21460FDF772
:1038800069F982214DF21560FDF764F901214DF2CD
:103890001660FDF75FF9CA214DF21760FDF75AF97E
:1038A00002214DF21860FDF755F900214DF2196023
:1038B000FDF750F902214DF21A60FDF74BF9012195
:1038C0004DF21B60FDF746F902214DF21C60FDF739
:1038D00041F934214DF21D60FDF73CF902214DF212
:1038E0001E60FDF737F967214DF21F60FDF732F9D1
:1038F00002214DF22060FDF72DF984214DF2216067
:10390000FDF728F902214DF22260FDF723F9A421E9
:103910004DF22360FDF71EF902214DF22460FDF700
:1039200019F9B7214DF22560FDF714F902214DF286
:103930002660FDF70FF9CF214DF22760FDF70AF958
:1039400002214DF22860FDF705F9DE214DF22960D4
:10395000FDF700F902214DF22A60FDF7FBF8F22194
:103960004DF22B60FDF7F6F802214DF22C60FDF7C9
:10397000F1F8FE214DF22D60FDF7ECF803214DF238
:103980002E60FDF7E7F810214DF22F60FDF7E2F809
:1039900003214DF23060FDF7DDF833214DF2316047
:1039A000FDF7D8F803214DF23260FDF7D3F86D2111
:1039B0004DF23360FDF7CEF855211846FDF7CAF8F1
:1039C000AA212046FDF7C6F852212846FDF7C2F885
:1039D00008213046FDF7BEF800213846FDF7BAF859
:1039E000CC214046FDF7B6F800214846FDF7B2F875
:1039F00005216046FDF7AEF870215846FDF7AAF89C
:103A000070214BF20170FDF7A5F801214FF4384009
:103A1000FDF7A0F803214BF60100FDF79BF8032109
:103A20004BF60200FDF796F803214BF60300FDF775
:103A300091F802214FF43C40FDF78CF800214BF641
:103A40000140FDF787F800214BF60240FDF782F8B0
:103A5000D0214FF44940FDF77DF802214CF60110CA
:103A6000FDF778F850214CF60210FDF773F850215D
:103A70004CF60310FDF76EF850214CF60410FDF7DC
:103A800069F800214FF45450FDF764F855214FF4C4
:103A90006850FDF75FF84FF48850FDF739F878204B
:103AA00002F0F1FB4FF42450FDF732F8FDE0A0F5F1
:103AB00013414FF480744FF4E06940F2022B4FF44D
:103AC000274625397ED0A0F5134140F207752839E5
:103AD00079D0A0F513414FF488774FF41C56203964
:103AE00072D0A0F5134131396FD0A0F5A841083943
:103AF0006CD0A0F5A8514FF44077053967D0A0F5F8
:103B0000354105397ED0A0F5454105397BD0A0F57A
:103B10008A41313978D0A0F58A41353975D0404590
:103B2000C4D1E220FCF7F4FF1D20FCF7FDFF0220CA
:103B3000FCF7FAFF0420FCF7F7FF642002F0A3FB78
:103B4000E020FCF7E5FF0120FCF7EEFF0A2002F081
:103B5000B2FBE020FCF7DCFF0320FCF7E5FF0C20C4
:103B600002F0A9FB0120FCF7D3FF0A2002F0A3FB1F
:103B7000E620FCF7CDFF2F20FCF7D6FFFF20FCF757
:103B8000D3FFFF20FCF7D0FFB020FCF7C1FF2020BF
:103B9000FCF7CAFF0020FCF7C7FF0320FCF7C4FFB7
:103BA00040F21F30FCF7C0FF0120FCF7BDFF40F2E0
:103BB000DF10FCF7B9FF0020FCF7B6FFB420FCF7DC
:103BC000A7FF05E07EE049E101E2A7E27CE3FDE337
:103BD0000420FCF7A9FF40F21F40FCF7A5FF0020DE
:103BE000FCF7A2FF2E20FCF79FFF0020FCF79CFFB4
:103BF0000020FCF799FF0020FCF796FF0020FCF75F
:103C000093FF03E0FEE3FEE3FEE3FEE3B620FCF7F2
:103C10007FFF0220FCF788FF4FF40370FCF784FF5E
:103C20000020FCF781FF1720FCF77EFF1520FCF732
:103C30007BFF0020FCF778FF0020FCF775FFF020E9
:103C4000FCF766FF0320FCF76FFF2920FCF760FFFD
:103C5000D020FCF75DFF0020FCF766FFBE20FCF7DC
:103C600057FF0520FCF760FFFE20FCF75DFF0120F9
:103C7000FCF75AFF0020FCF757FF0020FCF754FF29
:103C80000020FCF751FFB820FCF742FF0320FCF7AF
:103C90004BFF0120FCF748FFBA20FCF739FF012059
:103CA000FCF742FF6420FDF76CFA0020FDF78CFA68
:103CB000FE490120C1F8BC025046FDF711FC21B0BD
:103CC000BDE8F08F47F6F001E520FCF743FF214601
:103CD0000120FCF73FFF49460220FCF73BFF41F281
:103CE00030010320FCF736FF00210420FCF732FFEF
:103CF00059460820FCF72EFF00210920FCF72AFF77
:103D000000210A20FCF726FF00210C20FCF722FFEF
:103D100000210D20FCF71EFF00210F20FCF71AFFE9
:103D200000211020FCF716FF07211120FCF712FFDD
:103D300000211220FCF70EFF00211320FCF70AFFE0
:103D400000210720FCF706FF41F290611020FCF7EC
:103D500001FF40F227211120FCF7FCFE9D211220DB
:103D6000FCF7F8FE4FF4C8511320FCF7F3FE2521B1
:103D70002920FCF7EFFE0D212B20FCF7EBFE07219D
:103D80003020FCF7E7FE40F203313120FCF7E2FE81
:103D900003213220FCF7DEFE40F206213520FCF73D
:103DA000D9FE08213620FCF7D5FE40F20641372027
:103DB000FCF7D0FE4FF441713820FCF7CBFE072111
:103DC0003920FCF7C7FE40F202613C20FCF7C2FE3E
:103DD00008213D20FCF7BEFE00215020FCF7BAFE72
:103DE000EF215120FCF7B6FE00215220FCF7B2FE75
:103DF00040F23F115320FCF7ADFE31466020FCF746
:103E0000A9FE01216120FCF7A5FE00216A20FCF734
:103E1000A1FE00218020FCF79DFE00218120FCF7FF
:103E200099FE00218220FCF795FE00218320FCF7FB
:103E300091FE00218420FCF78DFE00218520FCF7F7
:103E400089FE10219020FCF785FE4FF4C06192207E
:103E5000FCF780FE40F233110720FCE341F28F01B2
:103E6000EC20FCF777FE41F23421EF20FCF772FEE4
:103E700021460120FCF76EFE49460220FCF76AFE4F
:103E800041F230010320FCF765FE00210420FCF71D
:103E900061FE59460820FCF75DFE00210920FCF771
:103EA00059FE00210A20FCF755FE01210C20FCF7E9
:103EB00051FE00210D20FCF74DFE00210F20FCF7E4
:103EC00049FE00211020FCF745FE07211120FCF7D8
:103ED00041FE00211220FCF73DFE00211320FCF7DB
:103EE00039FE01210720FCF735FE322002F0E3F90C
:103EF00041F290411020FCF72DFE40F227211120C5
:103F0000FCF728FE322002F0D6F98A211220FCF7B5
:103F100021FE322002F0CFF94FF4D0511320FCF7EC
:103F200019FE06212920FCF715FE0D212B20FCF798
:103F300011FE322002F0BFF900212020FCF70AFE1A
:103F400000212120FCF706FE322002F0B4F9002106
:103F50003020FCF7FFFD40F204613120FCF7FAFD50
:103F600040F205313220FCF7F5FD00213520FCF749
:103F7000F1FD40F609413620FCF7ECFD4FF40171EC
:103F80003720FCF7E7FD40F201313820FCF7E2FD75
:103F900029463920FCF7DEFD00213C20FCF7DAFD44
:103FA00040F60A213D20FCF7D5FD322002F083F9CE
:103FB00000215020FCF7CEFDEF215120FCF7CAFD77
:103FC00000215220FCF7C6FD40F23F114DE10021D7
:103FD0000846FCF7BFFD21460120FCF7BBFD494622
:103FE0000220FCF7B7FD41F230010320FCF7B2FDDF
:103FF00000210420FCF7AEFD59460820FCF7AAFD7D
:1040000000210920FCF7A6FD00210A20FCF7A2FDF3
:1040100001210C20FCF79EFD00210D20FCF79AFDEC
:1040200000210F20FCF796FD322002F044F940F207
:1040300001110720FCF78EFD322002F03CF94FF40D
:1040400086511020FCF786FD07211120FCF782FD28
:1040500039461220FCF77EFD4FF430611320FCF747
:1040600079FD00212920FCF775FD44F210012B2079
:10407000FCF770FD00215020FCF76CFDEF21512072
:10408000FCF768FD00215220FCF764FD40F23F116F
:104090005320FCF75FFD31466020FCF75BFD0121FA
:1040A0006120FCF757FD00216A2001E000804042BA
:1040B000FCF750FD00218020FCF74CFD0021812001
:1040C000FCF748FD00218220FCF744FD00218320FD
:1040D000FCF740FD00218420FCF73CFD00218520F9
:1040E000FCF738FD10219020FCF734FD00219220D0
:1040F000FCF730FD01219320FCF72CFD394695207B
:10410000FCF728FD00219720FCF724FD00219820D2
:10411000FCF720FD40F2731107207EE341F2140109
:10412000E720FCF717FD21460120FCF713FD4FF4B3
:1041300000710220FCF70EFD41F238010320FCF76C
:1041400009FD59460820FCF705FD00210920FCF770
:1041500001FD00210A20FCF7FDFC00210C20FCF7EA
:10416000F9FC00210D20FCF7F5FC00210F20FCF7E5
:10417000F1FC00211020FCF7EDFC07211120FCF7D9
:10418000E9FC00211220FCF7E5FC00211320FCF7DC
:10419000E1FCC82002F08FF841F290611020FCF79A
:1041A000D9FC40F227211120FCF7D4FC322002F088
:1041B00082F80C211220FCF7CDFC322002F07BF8B3
:1041C0004FF400611320FCF7C5FC11212920FCF7F6
:1041D000C1FC0B212B20FCF7BDFC322002F06BF858
:1041E00000212020FCF7B6FC40F23F1319462120A5
:1041F000FCF7B0FC00213020FCF7ACFC4FF48374DA
:1042000021463120FCF7A6FC00213220FCF7A2FC5D
:104210004FF401713520FCF79DFC41F20A61362014
:10422000FCF798FC29463720FCF794FC21463820FF
:10423000FCF790FC29463920FCF78CFC40F2024147
:104240003C20FCF787FC40F60F413D20FCF782FC48
:1042500000215020FCF77EFCEF215120FCF77AFC76
:1042600000215220FCF776FC19465320FCF772FC23
:1042700031466020FCF76EFC01216120FCF76AFCEE
:1042800000216A20FCF766FC00218020FCF762FC1C
:1042900000218120FCF75EFC00218220FCF75AFC03
:1042A00000218320FCF756FC00218420FCF752FCFF
:1042B00000218520FCF74EFC10219020FCF74AFCE1
:1042C0004FF4C0619220FDE321460120FCF742FC3F
:1042D00049460220FCF73EFC41F230010320FCF786
:1042E00039FC00210420FCF735FC40F207210820AE
:1042F000FCF730FC00210920FCF72CFC00210A20EF
:10430000FCF728FC00210C20FCF724FC00210D20E8
:10431000FCF720FC00210F20FCF71CFC142001F00E
:10432000CAFF41F2B0611020FCF714FC01211120FA
:10433000FCF710FC01211720FCF70CFC4FF49C71DA
:104340001220FCF707FC4FF400611320FCF702FC7D
:1043500009212920FCF7FEFB09212A20FCF7FAFBA2
:104360000021A420FCF7F6FB00215020FCF7F2FB13
:10437000EF215120FCF7EEFB00215220FCF7EAFB75
:1043800040F23F115320FCF7E5FB31466020FCF77B
:10439000E1FB01216120FCF7DDFB00216A20FCF735
:1043A000D9FB00218020FCF7D5FB00218120FCF700
:1043B000D1FB00218220FCF7CDFB00218320FCF7FC
:1043C000C9FB00218420FCF7C5FB00E01EE00021B2
:1043D0008520FCF7BFFB13219020FCF7BBFB0021DD
:1043E0009220FCF7B7FB03219320FCF7B3FB39467F
:1043F0009520FCF7AFFB40F273110720FCF7AAFBF6
:1044000032200AE10DE109E2D0E285E30021072034
:10441000FCF7A0FB322001F04EFF4FF48E7112200A
:10442000FCF798FB0121A420FCF794FB0F21082046
:10443000FCF790FB08210A20FCF78CFB08210D20DB
:10444000FCF788FB29463020FCF784FB072131204C
:10445000FCF780FB40F203613220FCF77BFB49460E
:104460003320FCF777FB59463420FCF773FB02211D
:104470003520FCF76FFB41F60F713620FCF76AFB25
:1044800029463720FCF766FB00213820FCF762FB49
:1044900000213920FCF75EFB29463A20FCF75AFB45
:1044A00000213B20FCF756FB07213C20FCF752FB88
:1044B00000213D20FCF74EFB322001F0FCFE0121E3
:1044C0000720FCF747FB01211720FCF743FB3220B4
:1044D00001F0F1FE4FF4BD511020FCF73BFB40F220
:1044E00017211120FCF736FB4FF48F711220FCF7D7
:1044F00031FB4FF470611320FCF72CFB00212A20C4
:10450000FCF728FB0A212920FCF724FB4FF49F71BC
:104510001220FCF71FFB00215020FCF71BFBEF21B2
:104520005120FCF717FB00215220FCF713FB40F24F
:104530003F115320FCF70EFB31466020FCF70AFBCD
:1045400001216120FCF706FB00216A20FCF702FB39
:1045500000218020FCF7FEFA00218120FCF7FAFA06
:1045600000218220FCF7F6FA00218320FCF7F2FA02
:1045700000218420FCF7EEFA00218520FCF7EAFAFE
:1045800013219020FCF7E6FA39469220FCF7E2FA74
:1045900005219320FCF7DEFA00219520FCF7DAFADA
:1045A00000219720FCF7D6FA00219820FCF7D2FAD8
:1045B00021460120FCF7CEFA49460220FCF7CAFA50
:1045C00041F238010320FCF7C5FA00210420FCF772
:1045D000C1FA00210C20FCF7BDFA00210F20FCF7E6
:1045E000B9FA00212020FCF7B5FA00212120FCF7C0
:1045F000B1FA21210720FCF7ADFA142001F05BFE8F
:1046000061210720FCF7A6FA142001F054FE40F2C5
:1046100073110720FCF79EFA142001F04CFEFFF7FF
:1046200044BB00210846FCF795FA00210846FCF738
:1046300091FA00210846FCF78DFA00210846FCF7A4
:1046400089FA0121A420FCF785FA142001F033FE39
:104650003146602000E0DCE0FCF77CFA5D4659461C
:104660000820FCF777FA4FF405713020FCF772FA56
:1046700043F215713120FCF76DFA40F204613220EB
:10468000FCF768FA40F616613320FCF763FA42F251
:1046900011213420FCF75EFA4FF4A8513520FCF7C5
:1046A00059FA48F207513620FCF754FA41F2074113
:1046B0003720FCF74FFA41F203413820FCF74AFA61
:1046C00020213920FCF746FA1A219020FCF742FA03
:1046D00000211020FCF73EFA07211120FCF73AFADE
:1046E00000211220FCF736FA00211320FCF732FAE1
:1046F000142001F0E0FD4FF4E6611020FCF72AFAE7
:1047000040F237111120FCF725FA142001F0D3FDF7
:104710004FF4DC711220FCF71DFA142001F0CBFDE0
:104720004FF470611320FCF715FA80212A20FCF762
:1047300011FA48212920FCF70DFA142001F0BBFDE5
:1047400021460120FCF706FA49460220FCF702FA4E
:1047500041F238010320FCF7FDF929460820FCF757
:10476000F9F900210A20FCF7F5F900210C20FCF7EB
:10477000F1F900210D20FCF7EDF930210E20FCF7B6
:10478000E9F900215020FCF7E5F9EF215120FCF771
:10479000E1F900215220FCF7DDF940F23F115320EE
:1047A000FCF7D8F931466020FCF7D4F901216120EB
:1047B000FCF7D0F900216A20FCF7CCF911219020F8
:1047C000FCF7C8F94FF4C0619220FCF7C3F940F23E
:1047D00002419320FCF7BEF902219420FCF7BAF9BC
:1047E000142001F068FD01210720FCF7B3F9142023
:1047F00001F061FD61210720FCF7ACF940F2731173
:104800000720FCF7A7F900212020FCF7A3F90021DD
:104810002120FCF79FF9222100207AE1002108469F
:10482000FCF798F900210846FCF794F9142001F0F0
:1048300042FD00210846FCF78DF900210846FCF7EF
:1048400089F900210846FCF785F900210846FCF7A4
:1048500081F90121A420FCF77DF9142001F02BFD42
:1048600031466020FCF776F940F606010820FCF797
:1048700071F940F2037319463020FCF76BF90121FE
:104880003120FCF767F904213220FCF763F94FF47B
:1048900081713320FCF75EF939463420FCF75AF970
:1048A00040F203113520FCF755F91F213620FCF7A3
:1048B00051F919463720FCF74DF901213820FCF752
:1048C00049F904213920FCF745F915219020FCF71E
:1048D00041F94FF482611020FCF73CF940F2472186
:1048E0001120FCF737F94FF4DE711220FCF732F992
:1048F0004FF460611320FCF72DF9782001F0DBFC08
:1049000021460120FCF726F94FF400710220FCF744
:1049100021F941F230010320FCF71CF908210A209B
:10492000FCF718F900210C20FCF714F920210E20C7
:10493000FCF710F900210F20FCF70CF900212020D2
:10494000FCF708F900212120FCF704F93D212A2079
:10495000FCF700F9142001F0AEFC2D212920FCF712
:10496000F9F800215020FCF7F5F84DF2EF01512045
:10497000FCF7F0F800215220FCF7ECF840F23F1170
:104980005320FCF7E7F800216120FCF7E3F8002151
:104990006A20FCF7DFF839469220FCF7DBF80521A6
:1049A0009320FCF7D7F82146FFF7B6BB0121002082
:1049B000FCF7D0F80A2001F07EFC41F228611020BB
:1049C000FCF7C8F80E211220FCF7C4F840F6392194
:1049D0001320FCF7BFF80A2001F06DFC40211120E4
:1049E000FCF7B8F850211520FCF7B4F80A2001F0C4
:1049F00062FC1E211220FCF7ADF80A2001F05BFCDE
:104A00004FF4B1511020FCF7A5F842F639211320DC
:104A1000FCF7A0F80A2001F04EFC21460120FCF72B
:104A200099F839460220FCF795F841F23801032045
:104A3000FCF790F859460820FCF78CF808210A206A
:104A4000FCF788F800213020FCF784F840F202419E
:104A50003120FCF77FF84FF483713220FCF77AF8AD
:104A600040F203513320FCF775F84FF48271342083
:104A7000FCF770F840F201313520FCF76BF829465D
:104A80003620FCF767F840F205313720FCF762F872
:104A90004FF402713820FCF75DF840F60B713920B5
:104AA000FCF758F802214120FCF754F83146602009
:104AB000FCF750F801216120FCF74CF84FF4047129
:104AC000902000E0CAE0FCF745F84FF48571922091
:104AD000FCF740F804219320FCF73CF82146A02085
:104AE000FCF738F801210720FCF734F821210720D2
:104AF000FCF730F823210720FCF72CF8332107209E
:104B0000FCF728F840F233110720FCF723F80021C6
:104B1000A020FCF71FF882E530211520FCF71AF8D9
:104B200010219A20FCF716F820211120FCF712F82A
:104B300043F228411020FCF70DF802211220FCF767
:104B400009F841F238011320FCF704F8282001F09D
:104B5000B2FB12210846FBF7FDFF282001F0ABFB5A
:104B600043F220411020FBF7F5FF43F238011320F8
:104B7000FBF7F0FF462001F09EFB00213020FBF701
:104B8000E9FF40F202413120FBF7E4FF40F2073138
:104B90003220FBF7DFFF4FF441713320FBF7DAFFE0
:104BA00004213420FBF7D6FF40F201413520FBF70A
:104BB000D1FF29463620FBF7CDFF40F205313720E3
:104BC000FBF7C8FF4FF4C26319463820FBF7C2FF5A
:104BD00019463920FBF7BEFF21460120FBF7BAFF3B
:104BE00039460220FBF7B6FF41F230010320FBF704
:104BF000B1FF40F608010820FBF7ACFF08210A20AE
:104C0000FBF7A8FF31466020FBF7A4FF01216120DC
:104C1000FBF7A0FF4FF49F719020FBF79BFF21460D
:104C20009220FBF797FF21469320FBF793FF4FF469
:104C30004051A020FBF78EFF1021A320FBF78AFF35
:104C400001210720FBF786FF21210720FBF782FFC8
:104C500023210720FBF77EFF33210720FBF77AFF94
:104C600040F23311A0E62DE9F843FB4D1F46804684
:104C7000AB88089EA3F5D040043802D1A87901285A
:104C800007D0A2EB0800401C85B20C464FF0D84973
:104C900029E02B880846991A0024AC713A462A2448
:104CA000A3EB08036C812B27491E5B1EAF8189B2E1
:104CB0009BB20096FFF7D7FF0120A8716F81AC81EE
:104CC000BDE8F88321464046FBF76CFFFBF751FF38
:104CD0000020494603E0A1F88060401C80B2A84251
:104CE000F9D3641CA4B2BC42ECD9E9E72DE9F04742
:104CF0008246A2EB0A00401C0E4685B2981B401C5F
:104D000087B200244FF0D849DDF8208015E0301933
:104D100081B25046FBF746FFFBF72BFF00204946C8
:104D200007E004FB050338F81320A1F88020401C9D
:104D300080B2A842F5D3641CA4B2BC42E7D3BDE85C
:104D4000F0872DE9FE4F0026A2EB000882465F1A8D
:104D5000701E35468946B8F1000F02DD4FF00101A3
:104D600002E003D14FF00001019102E0C8F1000818
:104D70000190002F02DD4FF0010002E003D14FF05F
:104D80000000009002E0C7F1000700904046B845DF
:104D900001DD044600E03C46601C4FF0000B029031
:104DA00015E01FFA89F11FFA8AF0FCF759F9464419
:104DB0003D44A64202DD0199361B8A44A54202DD2C
:104DC00000992D1B89440BF101001FFA80FB029909
:104DD0008B45E6DDBDE8FE8FF0B51C4615460E4658
:104DE00007460B46FFF7ADFF3A46234631461046CD
:104DF000FFF7A7FF23462A4619463846FFF7A1FFCB
:104E00002A4623463146BDE8F040104699E72DE991
:104E1000FC4F80460024154603200F46A0EB4506B4
:104E200049E0781B81B208EB040A01901FFA8AF06E
:104E3000FCF716F9381B81B208EB050900901FFA40
:104E400089F0FCF70DF907EB040B1FFA8BF11FFA41
:104E500089F0FCF705F907EB05091FFA89F11FFA3C
:104E60008AF0FCF7FDF8A8EB040A1FFA89F11FFA93
:104E70008AF0FCF7F5F8A8EB05091FFA8BF11FFA89
:104E800089F0FCF7EDF8019881B21FFA8AF0FCF77F
:104E9000E7F8009881B21FFA89F0FCF7E1F8641C8A
:104EA000002E03DA06EB8406B61D04E0601B06EB59
:104EB00080066D1E0A36AC42B3DDBDE8FC8F2DE9DD
:104EC000F84F82461F460C468B46580700D00120FB
:104ED00000EBD700790810FB01F0203AC0B202F0D5
:104EE000FF090026009041E00C2F10D0102F12D0A7
:104EF000182F3ED1594909EBC90001EB80004FF052
:104F00000008855D28060AD5554802880BE009EBA4
:104F100049005449F1E7544901EB0910EFE70A98B9
:104F200028B94F48428821465046FCF7A5F8680644
:104F3000050E4948641CA4B24088A04219D9A4EBCC
:104F40000B00B84209D10AF101001FFA80FA424869
:104F50005C46018851450CD906E008F1010000F0DB
:104F6000FF08B8F1080FCDD3761CF6B20098864240
:104F7000BAD3BDE8F88F0346012000E05843491E2C
:104F8000C9B2FBD270472DE9FF4F81B00027DDF891
:104F900038B01D46924680463C46B9464FEA5B060D
:104FA00027E0281B401EC1B20A20FFF7E4FFBAFB2E
:104FB000F0F00A21B0FBF1F201FB120027B9691EE3
:104FC0008C4201DA48B101273030C2B206FB0480BE
:104FD00080B25B46CDF8009006E006FB048080B20C
:104FE0005B462022CDF800900299FFF768FF641C11
:104FF000E4B2AC42D5D305B0BDE8F08F2DE9FF4F48
:1050000081B08046DDF83CA00E984FF000091F46A5
:1050100093464C460AF00105460835E0381B401E11
:10502000C1B20A20FFF7A7FFBBFBF0F00A21B0FBDB
:10503000F1F201FB1200B9F1000F05D1791E8C428B
:1050400002DA98B14FF001093030C2B206FB048099
:1050500080B200950E9B12E0902300208EA70108DD
:10506000280000202A9D01089EA101085FEA0A602D
:1050700006FB04800E9B80B2009508D53022029971
:10508000FFF71DFF641CE4B2BC42C7D3B3E7202284
:10509000F5E72DE9F84F044600F0FF0810190D461A
:1050A000DDE90A761FFA80FA58191FFA80F94FF0E5
:1050B000000B11E0544502D3E819444685B24D4532
:1050C0000FD23B4629462046CDF800B0FFF7F7FE49
:1050D00004EB570084B2761C3278A2F120005E28DF
:1050E000E8D946E710B5012003F021FD01280FD1D2
:1050F000FBF7EEFB012003F022FDB249D1F8A80234
:1051000038B10020C1F8A802AF490878401C0870E7
:1051100010BD0120F6E72DE9F04391B0884607461F
:1051200001211D4616468805DDF8609001F03DFC22
:10513000A64C204603F008FD204603F00AFE002896
:10514000FAD14FF000700090A148CDE90107002787
:10515000CDE903764FF48050CDE9070500110990A1
:1051600040020A9004200B90CDE905790320CDE997
:105170000C07694620460E9703F06EFDB8F1000F4C
:105180001BD00121204603F0CEFD4FF40022414602
:10519000204603F0D2FD01221021204603F00AFE32
:1051A00039208DF83C008DF83D708DF83E7001205F
:1051B0008DF83F000FA801F03CFA11B0BDE8F08374
:1051C00070B5844C814D2146284603F0CDFD012861
:1051D00008D12146284603F0DCFD7B484068BDE845
:1051E0007040004770BD2DE9FE430121172001F0FA
:1051F000DCFB0121084601F0E2FB50200090022078
:105200008DF8040000248DF8064003208DF8050079
:10521000DFF8C49101258DF807506946484602F031
:10522000DFFBC0206D4E00906946304602F0D8FB8F
:105230004FF43C606A4F00906946384602F0D0FB5C
:105240006020DFF8A08100906946404602F0C8FB6C
:105250000D220421484602F037FC0D220621484663
:1052600002F032FC0D220721304602F02DFC0D2207
:105270000621384602F028FC0D220721384602F0AC
:1052800023FC0D220821384602F01EFC0D220921C4
:10529000384602F019FC0D220B21384602F014FCAE
:1052A0000D220621304602F00FFC0D22052140465A
:1052B00002F00AFC0D220621404602F005FC03F034
:1052C000A9FB494820210480448184810481818094
:1052D0004480C48003F0A9FB0121084603F009FCC7
:1052E000012003F0EDFB4E208DF808008DF80940F9
:1052F0008DF80A408DF80B5002A801F09AF9BDE82C
:10530000FE8310B500210846FBF74CFCFBF731FC8F
:1053100001212E4803F0D9FCBDE81040012003F024
:10532000DABB10B5002003F0D6FB29482838016805
:10533000C907FCD1BDE81040244803F0C6BC2DE9E4
:10534000F0411E4617460C460546FFF7EAFF4FF6AA
:10535000FF70FCF7C5F833463A4621462846FBF76E
:10536000CAFF3146384600F018FA00210846FBF71C
:1053700019FCFBF7FEFB0121144803F0A6FCBDE875
:10538000F041012003F0A7BB70B514460D46064658
:1053900003F040FB144B0020A9011880588198812C
:1053A0001981710199805880E001D880184603F076
:1053B0003CFB012003F08FFBBDE87040012003F0AF
:1053C0007FBB0000008042422C0000202864024085
:1053D00028000550000800100000024000040240B0
:1053E00000080240001002409E2300202DE9FC41ED
:1053F00000240121402001F0D8FA4FF40240012599
:1054000000908DF8045000268DF8066002208DF87B
:1054100005008DF807506946F94802F0E1FAF94FA6
:10542000C7F8A4620A2007F5297700F044FFBE619F
:105430000A2000F040FFBD6100F058FA0121FF2072
:1054400000F026FB8021122000F022FB322000F029
:1054500032FF1C2000F03BFB4FF6FF7505EA0026EB
:105460001D2000F034FB40EA0601A1F5FE40A23801
:1054700005D0E5A013F062FF0120BDE8FC810A2001
:1054800000F025FB05EA00250B2000F020FB40EA98
:105490000501A1F51850423802D0DEA013F04EFFEE
:1054A000DF4D05EB4400417815F8140000F0F0FAE8
:1054B000641CA4B2B22CF4D30020DEE770B5D94D41
:1054C000002405EB4400417815F8140000F0E0FAE0
:1054D000641CA4B2082CF4D3D24D00242A3D05EB61
:1054E0004400417815F8140000F0D2FA641CA4B20C
:1054F000072CF4D370BD70B5CA4D00241C3D05EBDC
:105500004400417815F8140000F0C2FA641CA4B2FB
:105510000E2CF4D370BD70B5C249103101EBC0053B
:10552000002405EB4400417815F8140000F0B0FAAF
:10553000641CE4B2042CF4D370BD70B55E25412622
:10554000542430B102280BD003280CD0042810D1E9
:105550000CE00021FF2000F09BFA1021C7201AE088
:1055600065254F2405E05225662402E042253F26AA
:1055700071240021FF2000F08BFA4021C72000F0A9
:1055800087FA2946CC2000F083FA3146CD2000F07E
:105590007FFA2146CE20BDE8704000F079BA0001C4
:1055A00010B52030C0B240F008040021FF2000F008
:1055B0006FFA00217C2000F06BFA02217D2000F0C0
:1055C00067FA03217C2000F063FA21467D2000F079
:1055D0005FFA2146BDE810407D2000F059BA10B5B1
:1055E00004460021FF2000F053FA00217C2000F047
:1055F0004FFA04217D2000F04BFA09217C2000F0B5
:1056000047FA2007010E7D2000F042FA0021BDE894
:1056100010407D2000F03CBA70B520252C4630B1FA
:10562000012807D0032808D004280BD108E018254A
:10563000342407E01C252A2404E02425162401E054
:1056400028250C240021FF2000F022FA00217C20D4
:1056500000F01EFA04217D2000F01AFA07217C20B8
:1056600000F016FA20217D2000F012FA29467D2054
:1056700000F00EFA21467D2000F00AFABDE87040E5
:1056800006217D2000F004BA70B58026002435463E
:10569000072817D2DFE800F0160406080C0F1300E5
:1056A00040240FE018240DE018244026C02509E00E
:1056B0001824402601E01824A026402502E01824E2
:1056C0004026A6250021FF2000F0E2F900217C20E1
:1056D00000F0DEF921467D2000F0DAF905217C207A
:1056E00000F0D6F931467D2000F0D2F92946BDE818
:1056F00070407D2000F0CCB910B504460121FF2098
:1057000000F0C6F9122000F0E2F920F002010CB11D
:1057100041F00201BDE81040122000F0B9B92DE9B6
:10572000F0410D46044600EB520701EB5306012100
:10573000FF2000F0ADF9032000F0C9F906F00302E4
:10574000294600F0F00062F39F010143032000F0BE
:105750009FF9C5F38701192000F09AF9C6F3870174
:105760001A2000F095F9322000F0B1F907F0070295
:10577000214600F0C00062F3DF010143322000F057
:1057800087F9C4F3C701172000F082F9C7F3C701F6
:10579000BDE8F041182000F07BB970B5820701D058
:1057A000012070BD8A0701D0022070BD84088D08D9
:1057B0000021FF2000F06CF90421E02000F068F9DE
:1057C000E1B25A2000F064F9E9B25B2000F060F920
:1057D0000421C4F3012001EA951101435C2000F08B
:1057E00057F90021E02000F053F9002070BD2DE9A9
:1057F000F04107460E46900716D00120BDE8F08123
:1058000000180240000043424D49443A25640D0A05
:10581000000000004849443A25640D0A00000000D9
:10582000EAB4010878B60108980701D00220E5E73C
:1058300094089D080021FF2000F02AF90421E020AF
:1058400000F026F9E1B2512000F022F9E9B252202D
:1058500000F01EF9F9B2532000F01AF9F1B2542009
:1058600000F016F92846802505EA5001702000EA6C
:1058700016100843082101EA54110143C7F302201E
:105880000143552000F004F905EA9401572000F087
:10589000FFF80021E02000F0FBF80020AEE770B533
:1058A0000D4604460021FF2000F0F2F80421E0201C
:1058B00000F0EEF8C4F3C701C02000F0E9F8C5F32A
:1058C000C701C12000F0E4F8600705F0070242EAD2
:1058D0009062802000EA141111438C2000F0D8F867
:1058E0000021E02000F0D4F8002070BD1CB501219B
:1058F000082001F05AF8C020009001208DF8040023
:1059000000218DF8061002218DF80510834C8DF8CA
:1059100007006946204602F063F8C021204602F0E5
:10592000C4F8206820F440402060206840F48040A3
:1059300020601CBD70B57A4C0120C4F89C02C4F8EC
:105940009802322004F5267400F09DFC0025656065
:10595000322000F098FC256070BD70B5704C0020BE
:10596000C4F89C02322004F5267400F08CFC01255A
:105970002560322000F087FC6560BDE87040322071
:1059800000F081BC70B5322000F07DFC644C012039
:10599000C4F89C02C4F89802322004F5267400F082
:1059A00072FC00252560322000F06DFC6560BDE8CA
:1059B0007040322000F067BC2DE9F0410024584EC1
:1059C0000546A0460127280602D5C6F89C7201E0CC
:1059D000C6F89C826806050E322000F054FCC6F81A
:1059E0009872322000F04FFCC6F89882641CE4B232
:1059F000082CE8D3494C206820F4404020602068FF
:105A00002060322000F03FFCC6F89872322000F08F
:105A10003AFCD6F81C0200B10120C6F89882216831
:105A200021F440412160216841F480412160BDE8BA
:105A3000F0812DE9F047394F0024386820F44040C8
:105A4000386038683860364E08254FF00108A146A6
:105A5000322000F018FCC6F898826006040ED6F8D2
:105A60001C0208B1641CE4B2322000F00CFCC6F841
:105A700098926D1E15F0FF05EAD1386820F4404079
:105A80003860386840F4804038602046BDE8F087D0
:105A900070B50D4606460024FFF74CFF6020FFF767
:105AA0008BFF00B10124642000F0EDFB3046FFF7CE
:105AB00083FF00B10124642000F0E5FB2846FFF7D6
:105AC0007BFF00B10124FFF748FF204670BD10B5F1
:105AD0000446FFF72FFF6020FFF76EFF642000F001
