:020000040800F2
:10000000E0D5002041030008BF56000899130008FE
:10001000BD560008590A0008796400080000000075
:10002000000000000000000000000000890200083D
:10003000290C000800000000DD0200087D600008B7
:100040005B0300085B0300085B0300085B03000818
:100050005B0300085B0300085B0300085B03000808
:100060005B0300085B0300085B0300085B030008F8
:100070005B0300085B0300085B0300085B030008E8
:100080005B0300085B0300085B0300085B030008D8
:100090005B0300085B0300085B0300085B030008C8
:1000A0005B0300085B0300085B0300085B030008B8
:1000B0005B030008ED600008296100085B0300088D
:1000C0005B0300085B0300085B0300085B03000898
:1000D0005B030008DD6200085B0300085B030008A7
:1000E0005B0300085B0300085B0300085B03000878
:1000F0005B0300085B0300085B0300085B03000868
:100100005B0300085B030008656100085B030008EF
:100110005B0300085B0300085B0300085B03000847
:100120005B0300085B0300085B0300085B03000837
:100130005B030008A10D00085B0300085B030008D7
:100140005B0300085B0300085B0300085B03000817
:100150005B0300085B0300085B0300085B03000807
:100160005B0300085B0300085B0300085B030008F7
:100170005B0300085B030008110B00085B03000829
:100180005B0300085B03000800F002F800F06DF864
:100190000AA090E8000C82448344AAF10107DA45E2
:1001A00001D100F062F8AFF2090EBAE80F0013F0C7
:1001B000010F18BFFB1A43F001031847FC6E010042
:1001C0001C6F01000A444FF0000C10F8013B13F0C3
:1001D000070408BF10F8014B1D1108BF10F8015BA0
:1001E000641E05D010F8016B641E01F8016BF9D193
:1001F00013F0080F1EBF10F8014BAD1C0C1B09D1EA
:100200006D1E58BF01F801CBFAD505E014F8016B5B
:1002100001F8016B6D1EF9D59142D6D370470000ED
:100220000023002400250026103A28BF78C1FBD8FF
:10023000520728BF30C148BF0B607047642900F0E7
:100240001181752900F00E81782900F0478163291A
:1002500000F07B83732900F08083002070471FB576
:1002600014F084FF1FBD10B510BD00F0C3FB114694
:10027000FFF7F5FF0AF077FE00F0E1FB03B4FFF7AC
:10028000F2FF03BC06F000F92A4B19680868B0E8D1
:10029000F04F80F30988BFF36F8F4FF0000080F3B9
:1002A000118870470000000006480068006880F36D
:1002B000088862B661B6BFF34F8FBFF36F8F00DF60
:1002C00000BF00BF08ED00E0DFF80C00016841F45A
:1002D00070010160704700BF88ED00E0EFF3098016
:1002E000BFF36F8F134B1A681EF0100F08BF20ED7D
:1002F000108A20E9F04F106008B44FF0500080F3EE
:100300001188BFF34F8FBFF36F8F13F025FF4FF0AE
:10031000000080F3118808BC19680868B0E8F04F45
:100320001EF0100F08BFB0EC108A80F30988BFF3ED
:100330006F8F7047C4020020EFF305807047000004
:100340000948804709480047FEE7FEE7FEE7FEE769
:10035000FEE7FEE7FEE7FEE7FEE7FEE704480549A5
:10036000054A064B704700009160000889010008AB
:10037000E0CF0020E0D50020E0D10020E0D1002037
:10038000704700000FB4044910B503AA029800F0AA
:10039000E9FA10BC5DF814FB300000200FB41CB566
:1003A000074B06AA7B4469460090059800F0ABFA1B
:1003B0000020694600F0BAFA1CBC5DF814FB00008E
:1003C0008505000070B5044685690068C10601D541
:1003D000302600E02026C00707D070BDD4E90121F7
:1003E00030469047206A401C20626D1EF6D570BDD5
:1003F00070B5044685690078C00707D170BDD4E99F
:10040000012120209047206A401C20626D1EF6D5F5
:1004100070BD70B50C460546012A05D028788006C7
:1004200000D5EA69002302E0012305E05B1C93424A
:1004300002D2E05C0028F9D1A869E618C01AA861C8
:10044000286A184428622846FFF7BCFF04E0D5E973
:10045000012114F8010B9047B442F8D32846FFF766
:10046000C7FF70BD2DE9F0410646002410687529CC
:10047000314616A510D0AFF30080002802DA4042C2
:1004800013A507E031688A0701D512A502E04907E4
:1004900004D511A5012401E0AFF3008000210A2258
:1004A00006F1240709E0B0FBF2FCB0FBF2F302FB1B
:1004B0001C00303078541846491C0028F3D12346DC
:1004C0002A463046BDE8F04100F0BEB90000000009
:1004D0002D0000002B0000002000000070B5044635
:1004E0000D4621461068AFF300802188090502D52A
:1004F0000F4A7A4402E00E4A7A440E32002104F197
:10050000240305E000F00F060009965D5E54491CC7
:100510000028F7D120780023000704D5702D02D0E1
:1005200009B1022311322046BDE8704000F08CB9B9
:10053000AA6601002DE9F05F894604464FF0000AE3
:10054000DFF874B1FB44C0F820A02046E16888477A
:10055000002874D0252806D0D4E901219047206ACC
:10056000401C2062F1E700265F462046E16888478C
:100570002028054607DB312D05D2781910F8200C0C
:1005800008B10643F1E7B00701D526F00406C4F828
:100590001CA00027C4F818A02A2D09D0284605F071
:1005A0006CFF38B304EB8708303DC8F8185019E0E9
:1005B00059F8041B204604EB87029161E1688847E3
:1005C000012F054618D1E069002820DA26F0200620
:1005D0001DE0D8F8180000EB800005EB4000303833
:1005E000C8F818002046E1688847054605F045FF31
:1005F0000028EED1012F0AD02E2D08D12046E16827
:1006000088477F1C0546022F46F02006C4DBA06900
:10061000002803DA404246F00106A061F00701D04D
:1006200026F010066C2D0BD0682D09D04C2D39D03A
:100630006A2D35D0742D35D07A2D33D016E038E0C0
:10064000E1682F4620468847B842054609D16C2FFD
:1006500026D04FF48060E16806432046884705466F
:1006600004E06C2F1AD04FF4807006430DB3A5F14F
:100670004100192802D8203546F400664A4629462A
:10068000204626604E46FFF7D9FD80B101280BD0E9
:10069000F61D26F0070000F1080956E74020E4E7C0
:1006A0008020D8E70020D6E706F104094DE7284668
:1006B00052E7206ABDE8F09F8066010040EA01032E
:1006C00010B59B070FD1042A0DD310C808C9121FFB
:1006D0009C42F8D020BA19BA884201D9012010BD35
:1006E0004FF0FF3010BD1AB1D30703D0521C07E002
:1006F000002010BD10F8013B11F8014B1B1B07D166
:1007000010F8013B11F8014B1B1B01D1921EF1D1D6
:10071000184610BD032A40F2308010F0030C00F0A0
:10072000158011F8013BBCF1020F624498BF11F82B
:1007300001CB00F8013B38BF11F8013BA2F10402E4
:1007400098BF00F801CB38BF00F8013B11F003035C
:1007500000F01A81083AC0F0088051F8043B083ACA
:1007600051F804CBA0E80810F5E7121D5CBF51F862
:10077000043B40F8043BAFF30080D20724BF11F8DC
:10078000013B11F801CB48BF11F8012B24BF00F841
:10079000013B00F801CB48BF00F8012B704702F085
:1007A000FF0343EA032242EA024200F002B84FF09C
:1007B00000020429C0F0128010F0030C00F01B802E
:1007C000CCF1040CBCF1020F18BF00F8012BA8BF3C
:1007D00020F8022BA1EB0C0100F00DB85FEAC17C00
:1007E00024BF00F8012B00F8012B48BF00F8012BB3
:1007F00070474FF0000200B51346944696462039E4
:1008000022BFA0E80C50A0E80C50B1F12001BFF4C9
:10081000F7AF090728BFA0E80C5048BF0CC05DF82F
:1008200004EB890028BF40F8042B08BF704748BF7D
:1008300020F8022B11F0804F18BF00F8012B7047F1
:1008400070477047704770472DE9F0470D4699464D
:100850009246044600F124080168880604D5E06940
:1008600021F01001216000E00120A84201DD471BBA
:1008700000E00027A1697A1902EB0900081AA061BB
:100880002078C00602D42046FFF79CFD002608E031
:10089000D4E901211AF806009047206A401C761C12
:1008A00020624E45F4DB2078C0060AD52046FFF7CB
:1008B00089FD06E0D4E9012130209047206A401CE0
:1008C0002062381EA7F10107F4DC07E0D4E901211A
:1008D00018F805009047206A401C2062281EA5F1E8
:1008E0000105F3DC2046FFF783FD2078000602D5E2
:1008F0000220BDE8F0870120FBE7000001694A1CE7
:1009000002610878704700B58FB0CDE90131002150
:10091000059105497944CDE9031011466846FFF772
:1009200009FE0FB000BD0000E5FFFFFF0A6802F8F6
:10093000010B0A60704710B5436913B1AFF3008033
:1009400001E0FFF766FD012010BD127800F12401DF
:100950000A7000224A700122EDE711684FF0FF3261
:10096000E9E70000074B70B50D467B44FFF7CBFF6E
:100970000446284600F03AF810B14FF0FF3070BD41
:10098000204670BD0B93000010B5203AC0F00B80DC
:10099000B1E81850203AA0E81850B1E81850A0E883
:1009A0001850BFF4F5AF5FEA027C24BFB1E81850DD
:1009B000A0E8185044BF18C918C0BDE810405FEA4D
:1009C000827C24BF51F8043B40F8043B08BF7047C9
:1009D000D20728BF31F8023B48BF11F8012B28BFCE
:1009E00020F8023B48BF00F8012B7047007B00F065
:1009F00080007047754600F02BF8AE46050069464A
:100A0000534620F00700854618B020B5FFF7A6FC36
:100A1000BDE820404FF000064FF000074FF00008FF
:100A20004FF0000B21F00701AC46ACE8C009ACE880
:100A3000C009ACE8C009ACE8C0098D46704710B5E4
:100A40000446AFF300802046BDE81040FFF716BC17
:100A5000004870477CCF0020FEE7000070B51446C8
:100A60000D46064600F03CF80B4B0020A90118800B
:100A7000588198811981710199805880E001D8804E
:100A8000184600F063F8012000F008F8BDE8704057
:100A9000012000F017B80000460300200549002897
:100AA000086802D040F0010001E020F00100086079
:100AB0007047000000000550014948617047000080
:100AC0000000055005490028086802D040F4804025
:100AD00001E020F4804008607047000000000550ED
:100AE000054800210160C1601F2242618161C1612E
:100AF0000162416270470000000005500349024650
:100B000000200969114200D0012070470000055003
:100B100010B50120FFF7F2FF01280FD10AF0ACF960
:100B20000120FFF7C9FF0749D1F8A80238B100201A
:100B3000C1F8A80204490878401C087010BD0120C3
:100B4000F6E70000008042422800002030B50D4941
:100B50000A6844F201039A430A600A6840F6F27395
:100B60009A4303884488C588234384882C432343BD
:100B700004892343448980892343034313430B603F
:100B800030BD0000000005502DE9F0411E4617461B
:100B90000C46054600F020F84FF6FF7000F020FCF0
:100BA00033463A462146284604F030FB3146384663
:100BB00004F096FF0021084604F080FA04F0BAFC25
:100BC0000121044800F01AF8BDE8F0410120FFF7C8
:100BD00065BF00002864024010B50020FFF75EFFEB
:100BE00004480168C907FCD1BDE81040024800F084
:100BF00005B8000000000550286402400029016883
:100C000002D041F0010101E021F0010101607047D3
:100C1000014600200968C90700D0012070474068DC
:100C200080B27047416070477047000001494861D9
:100C30007047000000900240044A0029D16901D0A9
:100C4000014300E08143D161704700000090024001
:100C500005490028886902D040F0020001E020F038
:100C6000020088617047000000900240F0B5124F0A
:100C700000234FF0004C44F2F45E561E786013E0FF
:100C800000EB4314C4F800C0C3EBC31505EB4505E6
:100C900001EB8505C4E901E5B34203D204F1200567
:100CA000E56000E0E0605B1C9342E9D30349C86063
:100CB0000348B860F0BD00004400002000900240EE
:100CC0001C04002005490028886902D040F4005027
:100CD00001E020F40050886170470000009002405D
:100CE000F0B50F4C00234FF48017561E206011E022
:100CF00000EB43142760C3EBC31505EB450501EB7F
:100D00008505A560B34203D204F12005E56000E04B
:100D1000E0605B1C9342EBD302490861F0BD000028
:100D2000440000200090024002680A4302607047BD
:100D300010B501214C06204604F090FF2046BDE886
:100D40001040002104F08ABF01B581B001980090E5
:100D5000002801D0401EFAE70CBD0000024881695E
:100D600041F48011816170470090024002680021C7
:100D7000002A08DB0268120405D40268D20502D5F5
:100D80000068C0F30D410846704700000349002089
:100D90000968C90700D00120704700000090024098
:100DA00010B5094C02E0094808F02AFF2068FFF757
:100DB000DDFF0028F7D14020FFF738FFBDE81040E5
:100DC0004FF48030FFF732BF48000020FC7B00204A
:100DD0002DE9F04186B000277F4E04460097019729
:100DE0003069884620F01C0502A804F067FF7B49A3
:100DF00003987B4A0144914202D245F0080516E06F
:100E00007849794A0144914202D245F00C050EE03E
:100E10007649774A0144914209D376490844764994
:100E2000884202D245F0040501E045F01005356125
:100E30004FF400420021404600F09EF900282DD0DA
:100E40006E48FFF781FF2068B0B36D4D0198012116
:100E5000401C0190404600F005F9400702D401987B
:100E6000A842F3D30198A84217D04FF48052002132
:100E70004046019700F080F900280FD00198012129
:100E8000401C0190404600F0EDF8800602D4019825
:100E9000A842F3D30198A84203D1002006B0BDE8D0
:100EA000F0811F214046019700F0DCF8C10604D50F
:100EB0004FF40061216201E008E02762400701D59C
:100EC000676113E04FF4804060610FE0206A616960
:100ED000C00840EA510082B20021404600F04CF9BF
:100EE0000028DBD06FF07F40FFF72EFF31684548C8
:100EF0000140D4E901021043E26854F8103F1A435C
:100F0000104362681043A2681043E26810432269EC
:100F1000104362691043A2691043E2691043226AD8
:100F20001043626A104308433060F4E90A01084341
:100F3000D4E9021211430843216908436169084357
:100F4000A1690843E16908437060206AB060606A83
:100F5000F060B1694FF641700140D4E90B021043D3
:100F6000238D626B42EA03421043A26B1043E26B93
:100F700010430843B061D4E910010843F0612248EE
:100F8000826922490A40D4E912131943D4E914357D
:100F90002B431943A36D1943E36D1943236E194382
:100FA000636E1943A36E194311438161D4E91B1287
:100FB0001143626F54F8783F1A431143626841EA63
:100FC0008201A268114341F400010160016841F00F
:100FD00080010160012061E70080024000D3CEFE65
:100FE000C0E1E40040F1E9FD40787D0100796CFC4E
:100FF000005A6202001F0AFA80F0FA02FFFF0F0097
:10100000FFFF04000F8120FF00900240233FDEF825
:10101000054B8A88184402640A78D1F8011042EA24
:10102000012141647047000000800240054900280A
:10103000086802D040F0040001E020F004000860DD
:10104000704700000080024005490028086802D06F
:1010500040F0080001E020F0080008607047000040
:101060000080024018B500220092124A13694FF620
:10107000FF7403F01C0304EAC02018434FF4F86324
:1010800003EA8111014321F0020040F001001061E8
:1010900009490098401C00901069C00702D00098D0
:1010A0008842F6D30098884201D1002018BD5069CB
:1010B00080B218BD00800240FFFF040002480168B2
:1010C00041F00101016070470090024000B501202D
:1010D000FFF7BAFFFFF742FE0120FFF7A7FF01204D
:1010E000FFF7F0FD01205DF804EBFFF7B1BD012132
:1010F00001600021416081604FF48042C160C0E91D
:101100000412D2108161C0E9071241628162C1629A
:101110000163416340228163C0E90F122022C0E9CC
:101120001121C1640165416581658022C165C0E905
:1011300018128166C16601674167D2048167C0E900
:101140001F125210C0E921211311C0E92331C0F848
:101150009410C0F89810C0F89C10C0E928125212E0
:10116000C0F8A8209201C0F8AC205212C0E92C218E
:10117000C0F8B8107047000038B500230093114B39
:101180001C694FF6FF7504F01C0405EAC0202043DB
:101190004FF4F86404EA8111014341F003005A61FD
:1011A000186109490098401C00901869C00702D0D6
:1011B00000988842F6D30098884201D1002038BDBB
:1011C000012038BD00800240FFFF0400094810B52F
:1011D000006810F0FF0F09D05021EFF3118081F368
:1011E0001188BFF34F8FBFF36F8F10BD12F084FCD7
:1011F000002010BD04ED00E00449096811F0FF0F64
:1012000002D080F31188704712F0B2BC04ED00E008
:101210008000A0F1C0400029016802D041F0010126
:1012200001E0024A1140016070470000FEFF0F001C
:1012300010B5D0E901121143D0E903231A43114339
:101240004269114382691143C2691143026A114321
:10125000426A1143826A1143C26A1143026B11430D
:1012600002689200A2F1C04211608168082907D18A
:1012700001688900A1F1C0410A6842F040020A6099
:10128000416BD1E9002342EA03128B688C891B026F
:1012900043EA04431A430B8A42EA03520B7D8969ED
:1012A00042EA03620A4301688900A1F1C0414A6031
:1012B000C16AB1F5804F08D000686FF070418000BE
:1012C000A0F1C040C0F8041110BD816BD1E900232A
:1012D00042EA03128B680C8A1B0243EA04531A4346
:1012E0000B7D896942EA036200680A438000A0F12D
:1012F000C040C0F8042110BDF0B5002201274FF016
:10130000030C0B6807FA02F52B40AB422CD10668A0
:1013100053000CFA03F4A64306600E79D0F800E0FF
:101320009E4046EA0E0606600E79012E01D0022E7E
:1013300012D18668A64386604E79D0F808E09E40B8
:1013400046EA0E0686604668AE43466045688E797A
:101350009640B6B235434560C568A543C560CC79B3
:101360009C40C3681C43C460521C102AC9D3F0BD02
:101370004B07DB0E9A40C90810B500EB8100016AEB
:101380000F249C40A1430162016A1143016210BD18
:101390004183704701837047FEE700001CB50121BF
:1013A000112004F04FFC1C20009000208DF8040058
:1013B00003208DF8050001248DF807406946064892
:1013C000FFF79AFF02208DF8070000946946034852
:1013D000FFF792FF1CBD0000001002400000024019
:1013E0002DE9F043184F0646002438887D88454390
:1013F000B888A0F5D041043902D1B879012808D0C5
:101400000021084603F05AFE04F094F84FF0D8404B
:1014100016E00020B8714FF02A09A7F80A904FF0A3
:101420002B08A7F80C80014603F048FE0120B87194
:10143000A7F80A80A7F80C90E6E7A0F88060641C83
:10144000AC42FAD3BDE8F083380300202DE9F04F19
:101450004A492A232B24898845F2105A4FF4305BDD
:101460004FF4285E4FF448754FF0F00C49F24139C3
:101470004FF4A07745F210364FF4F07280B13F4838
:101480004FF00108494580F806800780A0F802C0A7
:1014900001D0B1423ED12C2505814381848157E0A2
:1014A00036484FF00008494580F80680A0F800C093
:1014B000478006D0A1F5D04CBCF1040C01D0B1425C
:1014C0000CD12C2505814381A1F5D0438481043BB7
:1014D00001D0B14244D10780428041E0514507D15B
:1014E000A0F808B0A0F80AE04FF42C5181810EE07A
:1014F000A1F5C856633E06D02221018120214181F9
:10150000212181812CE02C21018144818381028071
:10151000458025E0A1F5D04CBCF1040C09D0514523
:101520000BD1A0F808B0A0F80AE04FF42C53838147
:1015300021E02C250581448109E0A1F5C85CBCF1BE
:10154000630C12D022230381212343812023838132
:10155000A1F5D043043B01D0B14201D102804780C4
:10156000BDE8F04F002003F0A7BC4FF02C0CA0F812
:1015700008C04381848105804280E9E73803002068
:101580002DE9F043414D91460C460246060AA988D2
:101590002846A1F5134340894FEA1428413B17D050
:1015A000A1F5A643103B13D0A1F5AA43103B13D0DD
:1015B0002E46A1F5C857B3793688B61A761E633F12
:1015C00023D0A1F5D047043F3AD0012B4DD04DE0B8
:1015D00003F0A4FF304639E003F0A0FF304603F0EB
:1015E00091FF6889401C80B203F098FFD0B203F0ED
:1015F00089FFA88903F092FF404603F083FFA88982
:10160000401C80B203F08AFF2BE003B9B2B203F0B2
:1016100085FF160A304603F075FFD0B203F072FF63
:10162000304603F06FFFD0B203F06CFFA88903F0DF
:1016300075FF404603F066FFE0B203F063FF0DE084
:10164000012B00D1B2B203F069FF100A03F05AFF78
:10165000D0B203F057FFA88903F060FF404603F0C3
:1016600051FFE0B203F04EFF07E0B2B2114603F0C3
:101670006BFFA889214603F067FF4FF0D840298906
:1016800020F87E1FA0F80290BDE8F0833803002008
:101690002DE9F843204D1F468046AB88089EA3F5F0
:1016A000D040043802D1A879012807D0A2EB080065
:1016B000401C85B20C464FF0D84929E02B880846DB
:1016C000991A0024AC713A462A24A3EB08036C81D2
:1016D0002B27491E5B1EAF8189B29BB20096FFF794
:1016E000D7FF0120A8716F81AC81BDE8F883214646
:1016F000404603F0E3FC03F01DFF0020494603E0F1
:10170000A1F88060401C80B2A842F9D3641CA4B246
:10171000BC42ECD9E9E70000380300202DE9F04F86
:10172000A1B0002401217A201F9404F08BFA01213A
:10173000084604F09FFA4FF40040009001208DF815
:1017400004008DF8064002208DF8050001208DF878
:1017500007006946FE48FFF7CFFD4CF2337000905A
:1017600002208DF804008DF8064003208DF8050056
:1017700001208DF807006946F648FFF7BDFD4FF6DA
:101780008070009002208DF804008DF80640032040
:101790008DF805000120F04D8DF8070069462846B8
:1017A000FFF7AAFDA814009002208DF804008DF820
:1017B000064003208DF805000120E84E8DF8070053
:1017C00069463046FFF798FDA814009002208DF876
:1017D00004008DF8064003208DF805000120E04F3D
:1017E0008DF8070069463846FFF786FD0C22002178
:1017F000D848FFF7BDFD0C220121D648FFF7B8FD00
:101800000C220421D348FFF7B3FD0C220521D14857
:10181000FFF7AEFD0C220821CE48FFF7A9FD0C22F0
:101820000921CC48FFF7A4FD0C220A21C948FFF783
:101830009FFD0C220E21C748FFF79AFD0C220F21B5
:10184000C448FFF795FD0C2207212846FFF790FDBD
:101850000C2208212846FFF78BFD0C22092128467F
:10186000FFF786FD0C220A212846FFF781FD0C2296
:101870000B212846FFF77CFD0C2211462846FFF776
:1018800077FD0C220D212846FFF772FD0C220E2158
:101890002846FFF76DFD0C220F212846FFF768FD53
:1018A0000C2211463046FFF763FD0C2211463846E4
:1018B000FFF75EFD0F20CDE911043C20CDE91304B4
:1018C000159409201694CDE917400820CDE9194058
:1018D0001B941C940620CDE902041D941E94102034
:1018E000CDE9044006940002CDE90A40089407942B
:1018F0008000CDE90C40099411A8CDE90E4018A84C
:10190000109002A8FFF794FC01210620FFF780FC4D
:10191000322004F003FE0121002003F015FE3220E6
:1019200004F0FCFD002003F095FA8E4A4FF0204AA7
:101930004FF6FF7B908049F2413545F2103645F273
:10194000105441F6631846F60407FF2804D358459F
:1019500002D0B0F5134F74D1D32003F0DFFD03F0B4
:101960006FFA908003F06CFA908003F069FA0BEA4A
:101970000020D946908003F063FA91880843908054
:10198000A8425ED0BF2003F0C9FD03F059FA908051
:1019900003F056FA908003F053FA908003F050FA67
:1019A00009EA0020908003F04BFA91880843908068
:1019B000B84246D0D42003F0B1FD03F041FA908044
:1019C00003F03EFA908003F03BFA09EA0020908091
:1019D00003F036FA918808439080B04231D04FF43A
:1019E0005A4003F09BFD03F02BFA90804FF45B40CC
:1019F00003F094FD03F024FA09EA002090804FF4EC
:101A00005C4003F08BFD03F01BFA91880843908043
:101A1000B0F5004F39D0A04213D0A12003F07EFDD5
:101A200003F00EFA908003F00BFA09EA0020908090
:101A300003F006FA91880843A0F5AE419080613921
:101A400020D080B2A84205D0B04203D0A04201D03D
:101A500040451CD1DAF81C11504621F00F01CAF89C
:101A60001C11DAF81C1121F47061CAF81C11DAF8A3
:101A70001C1141F00301CAF81C11DAF81C1141F4E1
:101A8000007121E0A2F80480E4E79480E2E7B84224
:101A900003D0A0F54541053918D1DAF81C1150469C
:101AA00021F00F01CAF81C11DAF81C1121F4706141
:101AB000CAF81C11DAF81C1141F00A01CAF81C110D
:101AC000DAF81C1141F44061C0F81C11914691886C
:101AD00025A0FEF757FCB9F80400A8427DD1CF201D
:101AE00003F01CFD002003F00DFDC12003F00AFDF2
:101AF000302003F007FDED2003F010FD642003F01B
:101B000001FD032003F0FEFC122003F0FBFC81200A
:101B100003F0F8FCE82003F001FD852003F0F2FC5F
:101B2000102003F0EFFC7A2003F0ECFCCB2003F054
:101B3000F5FC392003F0E6FC2C2003F0E3FC002048
:101B400003F0E0FC342003F0DDFC022014E0000090
:101B500000040240000C0240001002400014024049
:101B60000018024038030020204C43442049443AE6
:101B700025780D0A0000000003F0C4FCF72003F0F4
:101B8000CDFC202003F0BEFCEA2003F0C7FC0020BF
:101B900003F0B8FC002003F0B5FCC02003F0BEFC4D
:101BA0001B2003F0AFFCC12003F0B8FC012003F0C0
:101BB000A9FCC52003F0B2FC302003F0A3FC3020C8
:101BC00003F0A0FCC72003F0A9FCB72003F09AFCA7
:101BD000362003F0A3FC482000E0A7E003F092FCCD
:101BE0003A2003F09BFC552003F08CFCB12003F05D
:101BF00095FC002003F086FC1A2003F083FCB6203D
:101C000003F08CFC0A2003F07DFCA22003F07AFC98
:101C1000F22003F083FC002003F074FC262003F084
:101C20007DFC012003F06EFCE02003F077FC0F2028
:101C300003F068FC2A2003F065FC282003F062FC16
:101C4000082003F05FFC0E2003F05CFC082003F08A
:101C500059FC542003F056FCA92003F053FC432008
:101C600003F050FC0A2003F04DFC0F2003F04AFC67
:101C7000002003F047FC002003F044FC002003F0A8
:101C800041FC002003F03EFCE12003F047FC002073
:101C900003F038FC152003F035FC172003F032FC6C
:101CA000072003F02FFC112003F02CFC062003F08A
:101CB00029FC2B2003F026FC562003F023FC3C20BB
:101CC00003F020FC052003F01DFC102003F01AFC9B
:101CD0000F2003F017FC3F2003F014FC3F2003F01B
:101CE00011FC0F2003F00EFC2B2003F017FC00204A
:101CF00003F008FC002003F005FC012003F002FCC7
:101D00003F2003F0FFFB2A2003F008FC002003F033
:101D1000F9FB002003F0F6FB002003F0F3FBEF20BB
:101D200003F0F0FB112003F0F9FBA5E0B8427CD1F1
:101D3000112003F0F3FB142004F0F0FBD02003F09B
:101D4000EDFB072003F0DEFB422003F0DBFB1D2050
:101D500003F0D8FBD12003F0E1FB002003F0D2FB1D
:101D60001A2003F0CFFB092003F0CCFBD22003F0B4
:101D7000D5FB012003F0C6FB222003F0C3FBC020EB
:101D800003F0CCFB102003F0BDFB3B2003F0BAFBBB
:101D9000002003F0B7FB022003F0B4FB112003F096
:101DA000B1FBC52003F0BAFB032003F0ABFBC82056
:101DB00003F0B4FB002003F0A5FB252003F0A2FBF9
:101DC000212003F09FFB052003F09CFB002003F083
:101DD00099FB0A2003F096FB652003F093FB252076
:101DE00003F090FB772003F08DFB502003F08AFB7B
:101DF0000F2003F087FB002003F084FBF82003F0A2
:101E00008DFB012003F07EFBFE2003F087FB00200A
:101E100003F078FB022003F075FB202003F07EFB2B
:101E2000362003F07BFB082000E02BE003F06AFB88
:101E30003A2003F073FB552003F064FB2B2003F0E2
:101E40006DFB002003F05EFB002003F05BFB012034
:101E500003F058FB3F2003F055FB2A2003F05EFB04
:101E6000002003F04FFB002003F04CFB012003F0A7
:101E700049FBDF2003F046FB782004F04FFB2920CC
:101E800001F0FBBEB0427CD1ED2003F047FB012006
:101E900003F038FBFE2003F035FBEE2003F03EFBA1
:101EA000DE2003F02FFB212003F02CFBF12003F0B8
:101EB00035FB012003F026FBDF2003F02FFB102071
:101EC00003F020FBC42003F029FB8F2003F01AFB52
:101ED000C62003F023FB002003F014FBE22003F0F4
:101EE00011FBE22003F00EFBE22003F00BFBBF200E
:101EF00003F014FBAA2003F005FBB02003F00EFB57
:101F00000D2003F0FFFA002003F0FCFA0D2003F08F
:101F1000F9FA002003F0F6FA112003F0F3FA00209A
:101F200003F0F0FA192003F0EDFA002003F0EAFACA
:101F3000212003F0E7FA002003F0E4FA2D2003F05B
:101F4000E1FA002003F0DEFA3D2003F0DBFA002086
:101F500003F0D8FA5D2003F0D5FA002003F0D2FA9E
:101F60005D2003F0CFFA002003F0CCFAB12003F09B
:101F7000D5FA802003F0C6FA002003F0C3FA8B20C4
:101F800000E0FCE303F0BEFA002003F0BBFA962069
:101F900003F0B8FA002003F0B5FAB22003F0BEFA5D
:101FA000002003F0AFFA002003F0ACFA022003F0A7
:101FB000A9FA002003F0A6FA032003F0A3FA0020F8
:101FC00003F0A0FAB32003F0A9FA002003F09AFA74
:101FD000002003F097FA002003F094FA002003F0A9
:101FE00091FA002003F08EFA002003F08BFA002013
:101FF00003F088FA002003F085FA002003F082FA4B
:10200000002003F07FFA002003F07CFA002003F0A8
:1020100079FA002003F076FA002003F073FA00202A
:1020200003F070FA002003F06DFA002003F06AFA62
:10203000002003F067FA002003F064FA002003F0A8
:1020400061FA002003F05EFA002003F05BFA002042
:1020500003F058FA002003F055FAB42003F05EFABA
:102060008B2003F04FFA002003F04CFA962003F087
:1020700049FA002003F046FAA12003F043FA0020B9
:1020800003F040FAB52003F049FA022003F03AFACF
:10209000002003F037FA032003F034FA002003F0A5
:1020A00031FA042003F02EFA002003F02BFAB620B8
:1020B00003F034FA002003F025FA002003F022FA9E
:1020C000B72003F02BFA002003F01CFA002003F0E5
:1020D00019FA3F2003F016FA002003F013FA5E20ED
:1020E00003F010FA002003F00DFA642003F00AFA5E
:1020F000002003F007FA8C2003F004FA002003F01C
:1021000001FAAC2003F0FEF9002003F0FBF9DC201B
:1021100003F0F8F9002003F0F5F9702003F0F2F96C
:10212000002003F0EFF9902003F0ECF9002003F019
:10213000E9F9EB2003F0E6F9002003F0E3F9DC20F5
:1021400003F0E0F9002003F0DDF9B82003F0E6F930
:10215000002003F0D7F9002003F0D4F9002003F0A9
:10216000D1F9002003F0CEF9002003F0CBF90020D4
:1021700003F0C8F9002003F0C5F9002003F0C2F90C
:10218000BA2003F0CBF9242003F0BCF9002003F0BF
:10219000B9F9002003F0B6F9002003F0B3F9C1202B
:1021A00003F0BCF9202003F0ADF9002003F0AAF9F8
:1021B000542003F0A7F9002003F0A4F9FF2003F056
:1021C000A1F9002003F09EF9C22003F0A7F90A202C
:1021D00003F098F9002003F095F9042003F092F938
:1021E000002003F08FF9C32003F098F93C2003F09E
:1021F00089F9002003F086F93A2003F083F90020E2
:1022000003F080F9392003F07DF9002003F07AF91A
:10221000372003F077F9002003F074F93C2003F035
:1022200071F9002003F06EF9362003F06BF90020FD
:1022300003F068F9322003F065F9002003F062F939
:102240002F2003F05FF9002003F05CF92C2003F04D
:1022500059F9002003F056F9292003F053F9002022
:1022600003F050F9262003F04DF9002003F04AF95D
:10227000242003F047F9002003F044F9242003F060
:1022800041F9002003F03EF9232003F03BF9002040
:1022900003F038F93C2003F035F9002003F032F95F
:1022A000362003F02FF9002003F02CF9322003F040
:1022B00029F9002003F026F92F2003F023F900204C
:1022C00003F020F92C2003F01DF9002003F01AF987
:1022D000292003F017F9002003F014F9262003F059
:1022E00011F9002003F00EF9242003F00BF900206F
:1022F00003F008F9242003F005F9002003F002F9A7
:10230000232003F0FFF8002003F0FCF8C42003F0C2
:1023100005F9622003F0F6F8002003F0F3F8052039
:1023200003F0F0F8002003F0EDF8842003F0EAF861
:10233000002003F0E7F8F02003F0E4F8002003F0B9
:10234000E1F8182003F0DEF8002003F0DBF8A42009
:1023500003F0D8F8002003F0D5F8182003F0D2F8E5
:10236000002003F0CFF8502003F0CCF8002003F059
:10237000C9F80C2003F0C6F8002003F0C3F81720BA
:1023800003F0C0F8002003F0BDF8952003F0BAF880
:10239000002003F0B7F8F32003F0B4F8002003F0B6
:1023A000B1F8E62003F0AEF8002003F0ABF8C5204A
:1023B00003F0B4F8322003F0A5F8002003F0A2F8EF
:1023C000442003F09FF8002003F09CF8652003F000
:1023D00099F8002003F096F8762003F093F8002097
:1023E00003F090F8882003F08DF8002003F08AF8BD
:1023F000C62003F093F8202003F084F8002003F0B7
:1024000081F8172003F07EF8002003F07BF801200C
:1024100003F078F8002003F075F8C72003F07EF889
:10242000002003F06FF8002003F06CF8002003F0A8
:1024300069F8002003F066F8C82003F06FF8002068
:1024400003F060F8002003F05DF8002003F05AF874
:10245000002003F057F8C92003F060F8002003F0D3
:1024600051F8002003F04EF8002003F04BF8002054
:1024700003F048F8002003F045F8002003F042F88C
:10248000002003F03FF8002003F03CF8002003F0A8
:1024900039F8002003F036F8002003F033F800206C
:1024A00003F030F8002003F02DF8002003F02AF8A4
:1024B000002003F027F8002003F024F8E02003F0C8
:1024C0002DF8162003F01EF8002003F01BF81C2046
:1024D00003F018F8002003F015F8212003F012F89B
:1024E000002003F00FF8362003F00CF8002003F072
:1024F00009F8462003F006F8002003F003F8522004
:1025000003F000F8002002F0FDFF642002F0FAFF63
:10251000002002F0F7FF7A2002F0F4FF002002F022
:10252000F1FF8B2002F0EEFF002002F0EBFF99207C
:1025300002F0E8FF002002F0E5FFA82002F0E2FF31
:10254000002002F0DFFFB92002F0DCFF002002F0E3
:10255000D9FFC42002F0D6FF002002F0D3FFCA202A
:1025600002F0D0FF002002F0CDFFD22002F0CAFF1F
:10257000002002F0C7FFD92002F0C4FF002002F0C3
:10258000C1FFE02002F0BEFF002002F0BBFFF320FD
:1025900002F0B8FF002002F0B5FFE12002F0BEFF1C
:1025A000162002F0AFFF002002F0ACFF1C2002F06A
:1025B000A9FF002002F0A6FF222002F0A3FF0020C6
:1025C00002F0A0FF362002F09DFF002002F09AFFEB
:1025D000452002F097FF002002F094FF522002F005
:1025E00091FF002002F08EFF642002F08BFF00209C
:1025F00002F088FF7A2002F085FF002002F082FFBF
:102600008B2002F07FFF002002F07CFF992002F077
:1026100079FF002002F076FFA82002F073FF00206F
:1026200002F070FFB92002F06DFF002002F06AFF97
:10263000C42002F067FF002002F064FFCA2002F00D
:1026400061FF002002F05EFFD22002F05BFF00205D
:1026500002F058FFD82002F055FF002002F052FF90
:10266000E02002F04FFF002002F04CFFF32002F0C8
:1026700049FF002002F046FFE22002F04FFF052054
:1026800002F040FF002002F03DFF0B2002F03AFF75
:10269000002002F037FF1B2002F034FF002002F080
:1026A00031FF342002F02EFF002002F02BFF4420E7
:1026B00002F028FF002002F025FF4F2002F022FF49
:1026C000002002F01FFF612002F01CFF002002F03A
:1026D00019FF792002F016FF002002F013FF882076
:1026E00002F010FF002002F00DFF972002F00AFF19
:1026F000002002F007FFA62002F004FF002002F0F5
:1027000001FFB72002F0FEFE002002F0FBFEC22017
:1027100002F0F8FE002002F0F5FEC72002F0F2FE03
:10272000002002F0EFFED12002F0ECFE002002F0CB
:10273000E9FED62002F0E6FE002002F0E3FEDD20F6
:1027400002F0E0FE002002F0DDFEF32002F0DAFEEF
:10275000002002F0D7FEE32002F0E0FE052002F0A8
:10276000D1FE002002F0CEFE0A2002F0CBFE0020B7
:1027700002F0C8FE1C2002F0C5FE002000E0FDE2D1
:1027800002F0C0FE332002F0BDFE002002F0BAFECF
:10279000442002F0B7FE002002F0B4FE502002F008
:1027A000B1FE002002F0AEFE622002F0ABFE00207F
:1027B00002F0A8FE782002F0A5FE002002F0A2FEA2
:1027C000882002F09FFE002002F09CFE972002F07D
:1027D00099FE002002F096FEA62002F093FE002053
:1027E00002F090FEB72002F08DFE002002F08AFE7B
:1027F000C22002F087FE002002F084FEC72002F013
:1028000081FE002002F07EFED12002F07BFE00203F
:1028100002F078FED52002F075FE002002F072FE74
:10282000DD2002F06FFE002002F06CFEF32002F0CB
:1028300069FE002002F066FEE42002F06FFE012037
:1028400002F060FE002002F05DFE012002F05AFE60
:10285000002002F057FE022002F054FE002002F099
:1028600051FE2A2002F04EFE002002F04BFE3C20DA
:1028700002F048FE002002F045FE4B2002F042FE2E
:10288000002002F03FFE5D2002F03CFE002002F03E
:1028900039FE742002F036FE002002F033FE842060
:1028A00002F030FE002002F02DFE932002F02AFEFE
:1028B000002002F027FEA22002F024FE002002F0F9
:1028C00021FEB32002F01EFE002002F01BFEBE20FF
:1028D00002F018FE002002F015FEC42002F012FEE5
:1028E000002002F00FFECD2002F00CFE002002F0CE
:1028F00009FED32002F006FE002002F003FEDD20D8
:1029000002F000FE002002F0FDFDF32002F0FAFDCF
:10291000002002F0F7FDE52002F000FE002002F0AA
:10292000F1FD002002F0EEFD002002F0EBFD0020A2
:1029300002F0E8FD022002F0E5FD002002F0E2FDD9
:10294000292002F0DFFD002002F0DCFD3C2002F037
:10295000D9FD002002F0D6FD4B2002F0D3FD00206F
:1029600002F0D0FD5D2002F0CDFD002002F0CAFD96
:10297000742002F0C7FD002002F0C4FD842002F0A4
:10298000C1FD002002F0BEFD932002F0BBFD00203F
:1029900002F0B8FDA22002F0B5FD002002F0B2FD69
:1029A000B32002F0AFFD002002F0ACFDBE2002F02B
:1029B000A9FD002002F0A6FDC42002F0A3FD002026
:1029C00002F0A0FDCD2002F09DFD002002F09AFD56
:1029D000D32002F097FD002002F094FDDC2002F0ED
:1029E00091FD002002F08EFDF32002F08BFD00200F
:1029F00002F088FDE62002F091FD112002F082FD38
:102A0000002002F07FFD342002F07CFD002002F067
:102A100079FD562002F076FD002002F073FD76204D
:102A200002F070FD002002F06DFD772002F06AFDDB
:102A3000002002F067FD662002F064FD002002F035
:102A400061FD882002F05EFD002002F05BFD992010
:102A500002F058FD002002F055FDBB2002F052FDAF
:102A6000002002F04FFD992002F04CFD002002F002
:102A700049FD662002F046FD002002F043FD55208E
:102A800002F040FD002002F03DFD552002F03AFD2D
:102A9000002002F037FD452002F034FD002002F056
:102AA00031FD432002F02EFD002002F02BFD4420DA
:102AB00002F028FD002002F025FDE72002F02EFDA7
:102AC000322002F01FFD002002F01CFD552002F014
:102AD00019FD002002F016FD762002F013FD002003
:102AE00002F010FD662002F00DFD002002F00AFD4C
:102AF000672002F007FD002002F004FD672002F0CD
:102B000001FD002002F0FEFC872002F0FBFC00200B
:102B100002F0F8FC992002F0F5FC002002F0F2FC33
:102B2000BB2002F0EFFC002002F0ECFC992002F048
:102B3000E9FC002002F0E6FC772002F0E3FC002034
:102B400002F0E0FC442002F0DDFC002002F0DAFCA0
:102B5000562002F0D7FC002002F0D4FC232002F023
:102B6000D1FC002002F0CEFC332002F0CBFC002090
:102B700002F0C8FC452002F0C5FC002002F0C2FCB7
:102B8000E82002F0CBFC002002F0BCFC002002F0A8
:102B9000B9FC992002F0B6FC002002F0B3FC8720BB
:102BA00002F0B0FC002002F0ADFC882002F0AAFC8C
:102BB000002002F0A7FC772002F0A4FC002002F025
:102BC000A1FC662002F09EFC002002F09BFC882005
:102BD00002F098FC002002F095FCAA2002F092FC82
:102BE000002002F08FFCBB2002F08CFC002002F0E1
:102BF00089FC992002F086FC002002F083FC66200C
:102C000002F080FC002002F07DFC552002F07AFCEE
:102C1000002002F077FC552002F074FC002002F046
:102C200071FC442002F06EFC002002F06BFC44209A
:102C300002F068FC002002F065FC552002F062FC06
:102C4000002002F05FFCE92002F068FCAA2002F0FC
:102C500059FC002002F056FC002002F053FC00203A
:102C600002F050FC002002F059FCAA2002F04AFCBD
:102C7000CF2002F053FC002002F044FC002002F0C0
:102C800041FC002002F03EFC002002F03BFC002052
:102C900002F038FC002002F035FC002002F032FC8B
:102CA000002002F02FFC002002F02CFC002002F09B
:102CB00029FC002002F026FC002002F023FC00206A
:102CC00002F020FC002002F01DFC002002F01AFCA3
:102CD000002002F017FC002002F014FCF02002F0AB
:102CE0001DFC002002F00EFC502002F00BFC002026
:102CF00002F008FC002002F005FC002002F002FCBB
:102D0000F32002F00BFC002002F0FCFBF92002F0A3
:102D100005FC062002F0F6FB102002F0F3FB292050
:102D200002F0F0FB002002F0EDFB3A2002F0F6FB8F
:102D3000552002F0E7FB112002F0F0FB642003F0C5
:102D4000EDFB292002F0EAFB352002F0E7FB002032
:102D500002F0D8FB512002F0E1FBFF2002F0D2FB91
:102D6000532002F0DBFB2C2002F0CCFB552002F0BC
:102D7000D5FB822002F0C6FB2C20FCE3A0427DD1D3
:102D80004FF470435521184602F0DEFB4FF2010468
:102D9000AA21204602F0D8FB651C5221284602F0E9
:102DA000D3FBA61C0821304602F0CEFBE71C012114
:102DB000384602F0C9FB0D214FF4304002F0C4FB4D
:102DC0000D214BF2010002F0BFFB0D214BF202007E
:102DD00002F0BAFB4FF436483421404602F0B4FB0F
:102DE00034214BF2016002F0AFFB34214BF2026060
:102DF00002F0AAFB4FF431490D21484602F0A4FB32
:102E00004BF2011A0D21504602F09EFB0D214BF2B0
:102E1000021002F099FB34214FF4374002F094FB8A
:102E200034214BF2017002F08FFB34214BF202701F
:102E300002F08AFB00214FF4324002F085FB0021B2
:102E40004BF2012002F080FB00214BF2022002F045
:102E50007BFB24214FF4384002F076FB24214BF613
:102E6000010002F071FB24214BF6020002F06CFB22
:102E700001214FF43F4002F067FB00E0FEE30F2129
:102E80004FF4334002F060FB0F214BF2013002F0AF
:102E90005BFB0F214BF2023002F056FB34214FF462
:102EA000394002F051FB34214BF6011002F04CFB8B
:102EB00034214BF6021002F047FB08214FF4354055
:102EC00002F042FB08214BF2015002F03DFB0821C9
:102ED0004BF2025002F038FB03214FF4424002F063
:102EE00033FB24214FF43A4002F02EFB24214BF611
:102EF000012002F029FB24214BF6022002F024FBE2
:102F000000214FF43C4002F01FFB78214BF60140BA
:102F100002F01AFB00214BF6024002F015FB0021E3
:102F20004FF43D4002F010FB78214BF6015002F0C7
:102F30000BFB00214BF6025002F006FB00214FF480
:102F40003E4002F001FB64214BF6016002F0FCFA06
:102F500000214FF4514002F0F7FA33214DF20110F5
:102F600002F0F2FA00214DF2021002F0EDFA3421E3
:102F70004DF2031002F0E8FA00214DF2041002F0C5
:102F8000E3FA3A214DF2051002F0DEFA00214DF28B
:102F9000061002F0D9FA4A214DF2071002F0D4FAD5
:102FA00000214DF2081002F0CFFA5C214DF2091019
:102FB00002F0CAFA00214DF20A1002F0C5FA81218E
:102FC0004DF20B1002F0C0FA00214DF20C1002F08D
:102FD000BBFAA6214DF20D1002F0B6FA00214DF217
:102FE0000E1002F0B1FAE5214DF20F1002F0ACFA2A
:102FF00001214DF2101002F0A7FA13214DF2111029
:1030000002F0A2FA01214DF2121002F09DFA5421B1
:103010004DF2131002F098FA01214DF2141002F053
:1030200093FA82214DF2151002F08EFA01214DF231
:10303000161002F089FACA214DF2171002F084FA34
:1030400002214DF2181002F07FFA00214DF2191002
:1030500002F07AFA02214DF21A1002F075FA0121FB
:103060004DF21B1002F070FA02214DF21C1002F01A
:103070006BFA34214DF21D1002F066FA02214DF276
:103080001E1002F061FA67214DF21F1002F05CFA87
:1030900002214DF2201002F057FA84214DF2211046
:1030A00002F052FA02214DF2221002F04DFAA42150
:1030B0004DF2231002F048FA02214DF2241002F0E2
:1030C00043FAB7214DF2251002F03EFA02214DF2EB
:1030D000261002F039FACF214DF2271002F034FA0F
:1030E00002214DF2281002F02FFADE214DF22910B4
:1030F00002F02AFA02214DF22A1002F025FAF221FA
:103100004DF22B1002F020FA02214DF22C1002F0A9
:103110001BFAFE214DF22D1002F016FA03214DF29A
:103120002E1002F011FA10214DF22F1002F00CFABD
:1031300003214DF2301002F007FA33214DF2311025
:1031400002F002FA03214DF2321002F0FDF96D2176
:103150004DF2331002F0F8F900214FF4524002F022
:10316000F3F933214DF2012002F0EEF900214DF286
:10317000022002F0E9F934214DF2032002F0E4F9D3
:1031800000214DF2042002F0DFF93A214DF2052032
:1031900002F0DAF900214DF2062002F0D5F94A21B9
:1031A0004DF2072002F0D0F900214DF2082002F084
:1031B000CBF95C214DF2092002F0C6F900214DF255
:1031C0000A2002F0C1F981214DF20B2002F0BCF976
:1031D00000214DF20C2002F0B7F9A6214DF20D208E
:1031E00002F0B2F900214DF20E2002F0ADF9E52116
:1031F0004DF20F2002F0A8F901214DF2102002F04B
:10320000A3F913214DF2112002F09EF901214DF294
:10321000122002F099F954214DF2132002F094F992
:1032200001214DF2142002F08FF982214DF2152078
:1032300002F08AF901214DF2162002F085F9CA2127
:103240004DF2172002F080F902214DF2182002F011
:103250007BF900214DF2192002F076F902214DF29E
:103260001A2002F071F901214DF21B2002F06CF9D5
:1032700002214DF21C2002F067F934214DF21D208D
:1032800002F062F902214DF21E2002F05DF9672181
:103290004DF21F2002F058F902214DF2202002F0D9
:1032A00053F984214DF2212002F04EF902214DF212
:1032B000222002F049F9A4214DF2232002F044F922
:1032C00002214DF2242002F03FF9B7214DF22520D2
:1032D00002F03AF902214DF2262002F035F9CF2111
:1032E0004DF2272002F030F902214DF2282002F0A1
:1032F0002BF9DE214DF2292002F026F902214DF2B0
:103300002A2002F021F9F2214DF22B2002F01CF9C3
:1033100002214DF22C2002F017F9FE214DF22D2052
:1033200002F012F903214DF22E2002F00DF91021C6
:103330004DF22F2002F008F903214DF2302002F067
:1033400003F933214DF2312002F0FEF803214DF252
:10335000322002F0F9F86D214DF2332002F0F4F83A
:1033600000214FF4534002F0EFF833214DF20130C9
:1033700002F0EAF800214DF2023002F0E5F83421C3
:103380004DF2033002F0E0F800214DF2043002F07B
:10339000DBF83A214DF2053002F0D6F800214DF26B
:1033A000063002F0D1F84A214DF2073002F0CCF895
:1033B00000214DF2083002F0C7F85C214DF20930CF
:1033C00002F0C2F800214DF20A3002F0BDF881216E
:1033D0004DF20B3002F0B8F800214DF20C3002F043
:1033E000B3F8A6214DF20D3002F0AEF800214DF2F7
:1033F0000E3002F0A9F8E5214DF20F3002F0A4F8EA
:1034000001214DF2103002F09FF813214DF21130DE
:1034100002F09AF801214DF2123002F095F8542191
:103420004DF2133002F090F801214DF2143002F009
:103430008BF882214DF2153002F086F801214DF211
:10344000163002F081F8CA214DF2173002F07CF8F4
:1034500002214DF2183002F077F800214DF21930B8
:1034600002F072F802214DF21A3002F06DF80121DB
:103470004DF21B3002F068F802214DF21C3002F0D0
:1034800063F834214DF21D3002F05EF802214DF256
:103490001E3002F059F867214DF21F3002F054F847
:1034A00002214DF2203002F04FF884214DF22130FC
:1034B00002F04AF802214DF2223002F045F8A42130
:1034C0004DF2233002F040F802214DF2243002F098
:1034D0003BF8B7214DF2253002F036F802214DF2CB
:1034E000263002F031F8CF214DF2273002F02CF8CF
:1034F00002214DF2283002F027F8DE214DF229306A
:1035000002F022F802214DF22A3002F01DF8F221D9
:103510004DF22B3002F018F802214DF22C3002F05F
:1035200013F8FE214DF22D3002F00EF803214DF27A
:103530002E3002F009F810214DF22F3002F004F87D
:1035400003214DF2303001F0FFFF33214DF23130D5
:1035500001F0FAFF03214DF2323001F0F5FF6D2149
:103560004DF2333001F0F0FF00214FF4544001F0F0
:10357000EBFF332100E080E34DF2014001F0E4FF76
:1035800000214DF2024001F0DFFF34214DF20340F3
:1035900001F0DAFF00214DF2044001F0D5FF3A219D
:1035A0004DF2054001F0D0FF00214DF2064001F040
:1035B000CBFF4A214DF2074001F0C6FF00214DF23A
:1035C000084001F0C1FF5C214DF2094001F0BCFF51
:1035D00000214DF20A4001F0B7FF81214DF20B406E
:1035E00001F0B2FF00214DF20C4001F0ADFFA62129
:1035F0004DF20D4001F0A8FF00214DF20E4001F008
:10360000A3FFE5214DF20F4001F09EFF01214DF295
:10361000104001F099FF13214DF2114001F094FF89
:1036200001214DF2124001F08FFF54214DF2134061
:1036300001F08AFF01214DF2144001F085FF822143
:103640004DF2154001F080FF01214DF2164001F0CE
:103650007BFFCA214DF2174001F076FF02214DF2A7
:10366000184001F071FF00214DF2194001F06CFF8C
:1036700002214DF21A4001F067FF00E000E3012152
:103680004DF21B4001F060FF02214DF21C4001F0A1
:103690005BFF34214DF21D4001F056FF02214DF237
:1036A0001E4001F051FF67214DF21F4001F04CFF19
:1036B00002214DF2204001F047FF84214DF22140CC
:1036C00001F042FF02214DF2224001F03DFFA42112
:1036D0004DF2234001F038FF02214DF2244001F069
:1036E00033FFB7214DF2254001F02EFF02214DF2AC
:1036F000264001F029FFCF214DF2274001F024FFA1
:1037000002214DF2284001F01FFFDE214DF2294039
:1037100001F01AFF02214DF22A4001F015FFF221BB
:103720004DF22B4001F010FF02214DF22C4001F030
:103730000BFFFE214DF22D4001F006FF03214DF25B
:103740002E4001F001FF10214DF22F4001F0FCFE50
:1037500003214DF2304001F0F7FE33214DF23140AC
:1037600001F0F2FE03214DF2324001F0EDFE6D2139
:103770004DF2334001F0E8FE00214FF4554001F0D6
:10378000E3FE33214DF2015001F0DEFE00214DF247
:10379000025001F0D9FE34214DF2035001F0D4FE65
:1037A00000214DF2045001F0CFFE3A214DF20550B8
:1037B00001F0CAFE00214DF2065001F0C5FE4A217B
:1037C0004DF2075001F0C0FE00214DF2085001F00B
:1037D000BBFE5C214DF2095001F0B6FE00214DF216
:1037E0000A5001F0B1FE81214DF20B5001F0ACFE08
:1037F00000214DF20C5001F0A7FEA6214DF20D5014
:1038000001F0A2FE00214DF20E5001F09DFEE521D7
:103810004DF20F5001F098FE01214DF2105001F0D1
:1038200093FE13214DF2115001F08EFE01214DF255
:10383000125001F089FE54214DF2135001F084FE24
:1038400001214DF2145001F07FFE82214DF21550FE
:1038500001F07AFE01214DF2165001F075FECA21E9
:103860004DF2175001F070FE02214DF2185001F098
:103870006BFE00214DF2195001F066FE02214DF25F
:103880001A5001F061FE01214DF21B5001F05CFE67
:1038900002214DF21C5001F057FE34214DF21D5013
:1038A00001F052FE02214DF21E5001F04DFE672143
:1038B0004DF21F5001F048FE02214DF2205001F060
:1038C00043FE84214DF2215001F03EFE02214DF2D3
:1038D000225001F039FEA4214DF2235001F034FEB4
:1038E00002214DF2245001F02FFEB7214DF2255058
:1038F00001F02AFE02214DF2265001F025FECF21D3
:103900004DF2275001F020FE02214DF2285001F027
:103910001BFEDE214DF2295001F016FE02214DF270
:103920002A5001F011FEF2214DF22B5001F00CFE55
:1039300002214DF22C5001F007FEFE214DF22D50D8
:1039400001F002FE03214DF22E5001F0FDFD102189
:103950004DF22F5001F0F8FD03214DF2305001F0EF
:10396000F3FD33214DF2315001F0EEFD03214DF214
:10397000325001F0E9FD6D214DF2335001F0E4FDCC
:1039800000214FF4564001F0DFFD33214DF201607C
:1039900001F0DAFD00214DF2026001F0D5FD342185
:1039A0004DF2036001F0D0FD00214DF2046001F002
:1039B000CBFD3A214DF2056001F0C6FD00214DF22C
:1039C000066001F0C1FD4A214DF2076001F0BCFD27
:1039D00000214DF2086001F0B7FD5C214DF2096055
:1039E00001F0B2FD00214DF20A6001F0ADFD812130
:1039F0004DF20B6001F0A8FD00214DF20C6001F0CA
:103A0000A3FDA6214DF20D6001F09EFD00214DF2B7
:103A10000E6001F099FDE5214DF20F6001F094FD7B
:103A200001214DF2106001F08FFD13214DF2116064
:103A300001F08AFD01214DF2126001F085FD542153
:103A40004DF2136001F080FD01214DF2146001F090
:103A50007BFD82214DF2156001F076FD01214DF2D2
:103A6000166001F071FDCA214DF2176001F06CFD86
:103A700002214DF2186001F067FD00214DF219603E
:103A800001F062FD02214DF21A6001F05DFD01219D
:103A90004DF21B6001F058FD02214DF21C6001F057
:103AA00053FD34214DF21D6001F04EFD02214DF217
:103AB0001E6001F049FD67214DF21F6001F044FDD9
:103AC00002214DF2206001F03FFD84214DF2216082
:103AD00001F03AFD02214DF2226001F035FDA421F2
:103AE0004DF2236001F030FD02214DF2246001F01F
:103AF0002BFDB7214DF2256001F026FD02214DF28C
:103B0000266001F021FDCF214DF2276001F01CFD60
:103B100002214DF2286001F017FDDE214DF22960EF
:103B200001F012FD02214DF22A6001F00DFDF2219B
:103B30004DF22B6001F008FD02214DF22C6001F0E6
:103B400003FDFE214DF22D6001F0FEFC03214DF23C
:103B50002E6001F0F9FC10214DF22F6001F0F4FC11
:103B600003214DF2306001F0EFFC33214DF2316062
:103B700001F0EAFC03214DF2326001F0E5FC6D2119
:103B80004DF2336001F0E0FC5521184601F0DCFCF9
:103B9000AA21204601F0D8FC5221284601F0D4FC8D
:103BA0000821304601F0D0FC0021384601F0CCFC61
:103BB000CC21484601F0C8FC0021504601F0C4FC6D
:103BC0000521404601F0C0FC70214FF4374001F060
:103BD000BBFC70214BF2017001F0B6FC01214FF4E7
:103BE000384001F0B1FC03214BF6010001F0ACFCC0
:103BF00003214BF6020001F0A7FC03214BF6030062
:103C000001F0A2FC02214FF43C4001F09DFC002198
:103C10004BF6014001F098FC00214BF6024001F008
:103C200093FCD0214FF4494001F08EFC02214CF668
:103C3000011001F089FC50214CF6021001F084FCC7
:103C400050214CF6031001F07FFC50214CF604107B
:103C500001F07AFC00214FF4545001F075FC55211D
:103C60004FF4685001F070FC4FF4885001F056FC9E
:103C7000782002F06FFC4FF4245001F04FFCFDE07F
:103C8000A0F513414FF480744FF4E06940F2022A2A
:103C90004FF4274625397CD0A0F5134140F2077533
:103CA000283977D0A0F513414FF488774FF41C568C
:103CB000203970D0A0F5134131396DD0A0F5A8415D
:103CC00008396AD0A0F5A8514FF44077053965D07E
:103CD000A0F5354105397CD0A0F54541053979D0AD
:103CE000A0F58A41313976D0A0F58A41353973D0B3
:103CF0004045C4D1E22001F011FC1D2001F002FC7E
:103D0000022001F0FFFB042001F0FCFB642002F024
:103D100021FCE02001F002FC012001F0F3FB0A206D
:103D200002F0FCFBE02001F0F9FB032001F0EAFBCC
:103D30000C2002F0F3FB012001F0F0FB0A2002F05E
:103D4000EDFBE62001F0EAFB2F2001F0DBFBFF207A
:103D500001F0D8FBFF2001F0D5FBB02001F0DEFB25
:103D6000202001F0CFFB002001F0CCFB032001F06C
:103D7000C9FB40F21F3001F0C5FB012001F0C2FB7E
:103D800040F2DF1001F0BEFB002001F0BBFBB420CD
:103D900005E080E04BE103E2AAE27FE3FEE301F00D
:103DA000BDFB042001F0AEFB40F21F4001F0AAFB76
:103DB000002001F0A7FB2E2001F0A4FB002001F061
:103DC000A1FB002001F09EFB002001F09BFB0020E6
:103DD00003E0FDE3FDE3FDE3FDE301F093FBB6202B
:103DE00001F09CFB022001F08DFB4FF4037001F009
:103DF00089FB002001F086FB172001F083FB1520D2
:103E000001F080FB002001F07DFB002001F07AFB37
:103E1000F02001F083FB032001F074FB292001F066
:103E20007DFBD02001F07AFB002001F06BFBBE206F
:103E300001F074FB052001F065FBFE2001F062FB40
:103E4000012001F05FFB002001F05CFB002001F08D
:103E500059FB002001F056FBB82001F05FFB032066
:103E600001F050FB012001F04DFBBA2001F056FBA0
:103E7000012001F047FB642000F0F6FF0020FDF771
:103E8000E5FAFF490120C1F8BC025846FDF7A8FA3F
:103E900021B0BDE8F08F47F6F001E52001F054FBBA
:103EA0002146012001F050FB4946022001F04CFB65
:103EB00041F23001032001F047FB0021042001F012
:103EC00043FB5146082001F03FFB0021092001F08F
:103ED0003BFB00210A2001F037FB00210C2001F000
:103EE00033FB00210D2001F02FFB00210F2001F0FA
:103EF0002BFB0021102001F027FB0721112001F0EE
:103F000023FB0021122001F01FFB0021132001F0F0
:103F10001BFB0021072001F017FB41F290611020EC
:103F200001F012FB40F22721112001F00DFB9D2131
:103F3000122001F009FB4FF4C851132001F004FBDB
:103F40002521292001F000FB0D212B2001F0FCFA96
:103F50000721302001F0F8FA40F20331312001F05E
:103F6000F3FA0321322001F0EFFA40F20621352066
:103F700001F0EAFA0821362001F0E6FA40F20641A3
:103F8000372001F0E1FA4FF44171382001F0DCFAFA
:103F90000721392001F0D8FA40F202613C2001F0FB
:103FA000D3FA08213D2001F0CFFA0021502001F082
:103FB000CBFAEF21512001F0C7FA0021522001F085
:103FC000C3FA40F23F11532001F0BEFA314660209F
:103FD00001F0BAFA0121612001F0B6FA00216A204D
:103FE00001F0B2FA0021802001F0AEFA0021812018
:103FF00001F0AAFA0021822001F0A6FA0021832014
:1040000001F0A2FA0021842001F09EFA002185200F
:1040100001F09AFA1021902001F096FA4FF4C06155
:10402000922001F091FA40F233110720FEE341F2B1
:104030008F01EC2001F088FA41F23421EF2001F0E9
:1040400083FA2146012001F07FFA4946022001F05F
:104050007BFA41F23001032001F076FA00210420BE
:1040600001F072FA5146082001F06EFA0021092091
:1040700001F06AFA00210A2001F066FA01210C2001
:1040800001F062FA00210D2001F05EFA00210F20FC
:1040900001F05AFA0021102001F056FA07211120F0
:1040A00001F052FA0021122001F04EFA00211320F3
:1040B00001F04AFA0121072001F046FA322002F00D
:1040C0002DFA41F29041102001F03EFA40F22721F2
:1040D000112001F039FA322002F020FA8A21122050
:1040E00001F032FA322002F019FA4FF4D0511320C5
:1040F00001F02AFA0621292001F026FA0D212B20B1
:1041000001F022FA322002F009FA0021202001F009
:104110001BFA0021212001F017FA322002F0FEF9EB
:104120000021302001F010FA40F20461312001F04A
:104130000BFA40F20531322001F006FA0021352059
:1041400001F002FA40F60941362001F0FDF94FF482
:104150000171372001F0F8F940F20131382001F007
:10416000F3F92946392001F0EFF900213C2001F054
:10417000EBF940F60A213D2001F0E6F9322002F089
:10418000CDF90021502001F0DFF9EF21512001F09D
:10419000DBF90021522001F0D7F940F23F114EE146
:1041A0000021084601F0D0F92146012001F0CCF9A8
:1041B0004946022001F0C8F941F23001032001F024
:1041C000C3F90021042001F0BFF95146082001F095
:1041D000BBF90021092001F0B7F900210A2001F004
:1041E000B3F901210C2001F0AFF900210D2001F0FD
:1041F000ABF900210F2001F0A7F9322002F08EF96F
:1042000040F20111072001F09FF9322002F086F9F7
:104210004FF48651102001F097F90721112001F089
:1042200093F93946122001F08FF94FF430611320D1
:1042300001F08AF90021292001F086F944F21001E9
:104240002B2001F081F90021502001F07DF9EF21B0
:10425000512001F079F90021522001F075F940F266
:104260003F11532001F070F93146602001F06CF9E4
:104270000121612001F068F900216A2002E00000BC
:104280000080404201F060F90021802001F05CF9DB
:104290000021812001F058F90021822001F054F919
:1042A0000021832001F050F90021842001F04CF915
:1042B0000021852001F048F91021902001F044F9F7
:1042C0000021922001F040F90121932001F03CF9F6
:1042D0003946952001F038F90021972001F034F992
:1042E0000021982001F030F940F27311072081E39A
:1042F00041F21401E72001F027F92146012001F0E5
:1043000023F94FF40071022001F01EF941F2380147
:10431000032001F019F95146082001F015F9002198
:10432000092001F011F900210A2001F00DF9002106
:104330000C2001F009F900210D2001F005F9002100
:104340000F2001F001F90021102001F0FDF80721F4
:10435000112001F0F9F80021122001F0F5F80021F8
:10436000132001F0F1F8C82002F0D8F841F2906172
:10437000102001F0E9F840F22721112001F0E4F8C3
:10438000322002F0CBF80C21122001F0DDF83220AF
:1043900002F0C4F84FF40061132001F0D5F81121A8
:1043A000292001F0D1F80B212B2001F0CDF832208B
:1043B00002F0B4F80021202001F0C6F840F23F13CB
:1043C0001946212001F0C0F80021302001F0BCF88E
:1043D0004FF483742146312001F0B6F800213220D9
:1043E00001F0B2F84FF40171352001F0ADF841F25F
:1043F0000A61362001F0A8F82946372001F0A4F818
:104400002146382001F0A0F82946392001F09CF817
:1044100040F202413C2001F097F840F60F413D2068
:1044200001F092F80021502001F08EF8EF21512088
:1044300001F08AF80021522001F086F81946532035
:1044400001F082F83146602001F07EF80121612000
:1044500001F07AF800216A2001F076F8002180202E
:1044600001F072F80021812001F06EF80021822015
:1044700001F06AF80021832001F066F80021842011
:1044800001F062F80021852001F05EF810219020F3
:1044900001F05AF84FF4C0619220FDE3214601205B
:1044A00001F052F84946022001F04EF841F2300185
:1044B000032001F049F80021042001F045F840F202
:1044C0000721082001F040F80021092001F03CF804
:1044D00000210A2001F038F800210C2001F034F806
:1044E00000210D2001F030F800210F2001F02CF800
:1044F000142002F013F841F2B061102001F024F80A
:104500000121112001F020F80121172001F01CF8F1
:104510004FF49C71122001F017F84FF40061132042
:1045200001F012F80921292001F00EF809212A20B2
:1045300001F00AF80021A42001F006F80021502023
:1045400001F002F8EF21512000F0FEFF002152207F
:1045500000F0FAFF40F23F11532000F0F5FF314622
:10456000602000F0F1FF0121612000F0EDFF00214B
:104570006A2000F0E9FF0021802000F0E5FF002123
:10458000812000F0E1FF0021822000F0DDFF00210A
:10459000832000F0D9FF0021842000E021E000F01A
:1045A000D3FF0021852000F0CFFF1321902000F0E1
:1045B000CBFF0021922000F0C7FF0321932000F0E1
:1045C000C3FF3946952000F0BFFF40F2731103E0AE
:1045D00014E110E2D7E28CE3072000F0B5FF3220AF
:1045E00008E10021072000F0AFFF322001F096FF24
:1045F0004FF48E71122000F0A7FF0121A42000F0DB
:10460000A3FF0F21082000F09FFF08210A2000F0DF
:104610009BFF08210D2000F097FF2B4629463020F4
:1046200000F092FF0721312000F08EFF40F203617D
:10463000322000F089FF4D464946332000F084FFC8
:104640005146342000F080FF0221352000F07CFF2D
:1046500041F60F71362000F077FF1946372000F041
:1046600073FF0021382000F06FFF0021392000F097
:104670006BFF19463A2000F067FF00213B2000F055
:1046800063FF07213C2000F05FFF00213D2000F088
:104690005BFF322001F042FF0121072000F054FFB0
:1046A0000121172000F050FF322001F037FF4FF4B6
:1046B000BD51102000F048FF40F21721112000F0FA
:1046C00043FF4FF48F71122000F03EFF4FF47061F2
:1046D000132000F039FF00212A2000F035FF0A21C5
:1046E000292000F031FF4FF49F71122000F02CFFC1
:1046F0000021502000F028FFEF21512000F024FF7E
:104700000021522000F020FF40F23F11532000F022
:104710001BFF3146602000F017FF0121612000F0EF
:1047200013FF00216A2000F00FFF0021802000F01D
:104730000BFF0021812000F007FF0021822000F004
:1047400003FF0021832000F0FFFE0021842000F001
:10475000FBFE0021852000F0F7FE1321902000F0E1
:10476000F3FE3946922000F0EFFE0521932000F081
:10477000EBFE0021952000F0E7FE0021972000F0DD
:10478000E3FE0021982000F0DFFE2146012000F02A
:10479000DBFE2946022000F0D7FE41F2380103205B
:1047A00000F0D2FE0021042000F0CEFE00210C20FB
:1047B00000F0CAFE00210F2000F0C6FE00212020DC
:1047C00000F0C2FE0021212000F0BEFE21210720C2
:1047D00000F0BAFE142001F0A1FE6121072000F0D4
:1047E000B3FE142001F09AFE40F27311072000F08E
:1047F000ABFE142001F092FEFFF740BB00210846FB
:1048000000F0A2FE0021084600F09EFE00210846AE
:1048100000F09AFE0021084600F096FE0121A42037
:1048200000F092FE142001F079FE00E0DEE0314657
:10483000602000F089FE55465146082000F084FEB5
:104840004FF40571302000F07FFE43F215713120E6
:1048500000F07AFE40F20461322000F075FE40F66E
:104860001661332000F070FE42F21121342000F076
:104870006BFE4FF4A851352000F066FE48F2075158
:10488000362000F061FE41F20741372000F05CFE67
:1048900041F20341382000F057FE2021392000F07A
:1048A00053FE1A21902000F04FFE0021102000F04E
:1048B0004BFE0721112000F047FE0021122000F0DE
:1048C00043FE0021132000F03FFE142001F026FEDD
:1048D0004FF4E661102000F037FE40F2371111204E
:1048E00000F032FE142001F019FE4FF4DC711220AA
:1048F00000F02AFE142001F011FE4FF47061132025
:1049000000F022FE80212A2000F01EFE48212920EE
:1049100000F01AFE142001F001FE2146012000F0F3
:1049200013FE4946022000F00FFE41F23801032039
:1049300000F00AFE2946082000F006FE00210A20A9
:1049400000F002FE00210C2000F0FEFD00210D20F1
:1049500000F0FAFD30210E2000F0F6FD002150207D
:1049600000F0F2FDEF21512000F0EEFD0021522079
:1049700000F0EAFD40F23F11532000F0E5FD314622
:10498000602000F0E1FD0121612000F0DDFD00214B
:104990006A2000F0D9FD1121902000F0D5FD4FF4E0
:1049A000C061922000F0D0FD40F20241932000F05F
:1049B000CBFD0221942000F0C7FD142001F0AEFDD4
:1049C0000121072000F0C0FD142001F0A7FD6121A6
:1049D000072000F0B9FD40F27311072000F0B4FD8C
:1049E0000021202000F0B0FD0021212000F0ACFDCE
:1049F000222100207AE10021084600F0A5FD0021D7
:104A0000084600F0A1FD142001F088FD00210846B1
:104A100000F09AFD0021084600F096FD00210846AE
:104A200000F092FD0021084600F08EFD0121A42037
:104A300000F08AFD142001F071FD3146602000F085
:104A400083FD40F60601082000F07EFD40F203736E
:104A50001946302000F078FD0121312000F074FD6E
:104A60000421322000F070FD4FF48171332000F0FA
:104A70006BFD3946342000F067FD40F2031135200C
:104A800000F062FD1F21362000F05EFD1946372040
:104A900000F05AFD0121382000F056FD0421392094
:104AA00000F052FD1521902000F04EFD4FF4826180
:104AB000102000F049FD40F24721112000F044FD94
:104AC0004FF4DE71122000F03FFD4FF460611320BF
:104AD00000F03AFD782001F021FD2146012000F090
:104AE00033FD4FF40071022000F02EFD41F2300141
:104AF000032000F029FD08210A2000F025FD0021F7
:104B00000C2000F021FD20210E2000F01DFD0021D1
:104B10000F2000F019FD0021202000F015FD0021DC
:104B2000212000F011FD3D212A2000F00DFD142070
:104B300001F0F4FC2D21292000F006FD0021502079
:104B400000F002FD4DF2EF01512000F0FDFC0021CC
:104B5000522000F0F9FC40F23F11532000F0F4FC29
:104B60000021612000F0F0FC00216A2000F0ECFC44
:104B70003946922000F0E8FC0521932000F0E4FC87
:104B80002146FFF7B3BB0121002000F0DDFC0A2025
:104B900001F0C4FC41F22861102000F0D5FC0E2188
:104BA000122000F0D1FC40F63921132000F0CCFC9B
:104BB0000A2001F0B3FC4021112000F0C5FC502177
:104BC000152000F0C1FC0A2001F0A8FC1E211220D3
:104BD00000F0BAFC0A2001F0A1FC4FF4B151102002
:104BE00000F0B2FC42F63921132000F0ADFC0A209F
:104BF00001F094FC2146012000F0A6FC3946022079
:104C000000F0A2FC41F23801032000F09DFC514667
:104C1000082000F099FC08210A2000F095FC0021F2
:104C2000302000F091FC40F20241312000F08CFC79
:104C30004FF48371322000F087FC40F2035133209F
:104C400000F082FC4FF48271342000F07DFC40F2D1
:104C50000131352000F078FC2946362000F074FC44
:104C600040F20531372000F06FFC4FF4027138201C
:104C700000F06AFC40F60B71392000F065FC02215F
:104C8000412000F061FC3146602000F05DFC012114
:104C9000612000F059FC00E0CDE04FF40471902059
:104CA00000F052FC4FF48571922000F04DFC04217D
:104CB000932000F049FC2146A02000F045FC012192
:104CC000072000F041FC2121072000F03DFC2321BA
:104CD000072000F039FC3321072000F035FC40F2BA
:104CE0003311072000F030FC0021A02000F02CFC44
:104CF00082E53021152000F027FC10219A2000F0D9
:104D000023FC2021112000F01FFC43F22841102039
:104D100000F01AFC0221122000F016FC41F23801CA
:104D2000132000F011FC282001F0F8FB12210846A6
:104D300000F00AFC282001F0F1FB43F22041102092
:104D400000F002FC43F23801132000F0FDFB462086
:104D500001F0E4FB0021302000F0F6FB40F20241BC
:104D6000312000F0F1FB40F20731322000F0ECFB83
:104D70004FF44171332000F0E7FB0421342000F0B0
:104D8000E3FB40F20141352000F0DEFB29463620EE
:104D900000F0DAFB40F20531372000F0D5FB4FF48C
:104DA000C2631946382000F0CFFB1946392000F0C5
:104DB000CBFB2146012000F0C7FB3946022000F062
:104DC000C3FB41F23001032000F0BEFB40F60801B6
:104DD000082000F0B9FB08210A2000F0B5FB31469D
:104DE000602000F0B1FB0121612000F0ADFB4FF429
:104DF0009F71902000F0A8FB2146922000F0A4FBB8
:104E00002146932000F0A0FB4FF44051A02000F079
:104E10009BFB1021A32000F097FB0121072000F04D
:104E200093FB2121072000F08FFB2321072000F0B6
:104E30008BFB3321072000F087FB40F23311A0E603
:104E400008B54FF0D840B0F88000ADF80000BDF8CC
:104E5000000008BD10B500F061FB052001F07AFBF1
:104E6000BDE81040FFF7ECBF10B50246BE2000F0D1
:104E700055FB052000F046FB104610F066F89FED4C
:104E80000C1B53EC112B10F073F810F031F880B2BA
:104E900000F038FB012000F035FBFF2000F032FB72
:104EA000002000F02FFBBDE81040002000F02ABBDE
:104EB0006666666666660440F0B57F4D0023294647
:104EC000AA79898846F6040741F66314012A01D0BD
:104ED0002AB11DE0B9421BD0A14202D118E0A14283
:104EE00016D1082814D2DFE800F00406080A0C0ED8
:104EF000101206200CE007200AE0042008E005203C
:104F000006E0012004E0002002E0032000E002208F
:104F1000A1F5134C45F2103245F21056BCF1410C8C
:104F200007D0B94205D0914203D0B14201D0A1428D
:104F30007BD1082812D2DFE800F0110406080A0C21
:104F40000E1080230AE0402308E0C02306E020235F
:104F500004E0602302E0A02300E0E023B14202D19C
:104F60004FF4585000E03620914205D0B14203D0B2
:104F7000A14201D043F00803B94201D143F002033A
:104F8000194600F0E1FAAA88A2420AD098062888B9
:104F9000698802D5884202D303E0884201D929807A
:104FA00068806889B24241D100F0B8FA002000F070
:104FB000A9FA6889401C80B200F0B0FA002000F025
:104FC000A1FA6889801C80B200F0A8FA2888401EE7
:104FD000C0F30F2000F096FA6889C01C80B200F080
:104FE0009DFA2878401EC0B200F08CFAA88900F023
:104FF00095FA002000F086FAA889401C80B200F0E3
:105000008DFA002000F07EFAA889801C80B200F0A2
:1050100085FA6888401EC0F30F2000F073FAA88953
:10502000C01C80B200F07AFA22E028E000F076FAA4
:10503000002000F067FA002000F064FA2888401E83
:10504000C0F30F2000F05EFA2878401EC0B200F0D6
:1050500059FAA88900F062FA002000F053FA002003
:1050600000F050FA6888401EC0F30F2000F04AFAA2
:10507000A878BDE8F040401EC0B200F043BA08284E
:1050800012D2DFE800F0040608110A0C0E103023DB
:105090000AE0102308E0202306E0382304E0282358
:1050A00002E0182300E00823BDE8F040032043F4A9
:1050B000805100F049BA0000380300202DE9F04388
:1050C000DFF844810C460246050AB8F80410404651
:1050D000A1F5134340894FEA1429413B17D0A1F5AC
:1050E000A643103B13D04646A1F5D047B379368886
:1050F000B61A761E043F0ED0A1F5C857633F1ED0E6
:10510000A1F5AA47103F57D0012B72D072E000F0F2
:1051100005FA284605E0012B00D1B2B200F0FEF9F5
:10512000100A00F0EFF9D0B200F0ECF9B8F80C007A
:1051300000F0F4F9484600F0E5F9E0B22AE06BB37C
:1051400000F0ECF9284600F0DDF9D0B200F0DAF911
:10515000B8F80000401EC0F30F2000F0D3F998F813
:105160000000401EC0B200F0CDF9B8F80C0000F00D
:10517000D5F9484600F0C6F9E0B200F0C3F9B8F836
:105180000200401EC0F30F2000F0BCF998F80200A6
:10519000401EC0B2BDE8F04300F0B4B9B2B200F0B6
:1051A000BDF9002000F0AEF9002000F0ABF9100AC4
:1051B00000F0A8F9D0B2D6E700F0B0F9284600F028
:1051C000A1F9B8F80A00401C80B200F0A7F9D0B2EB
:1051D00000F098F9B8F80C0000F0A0F9484600F08B
:1051E00091F9B8F80C00401C80B200F097F9A4E7E0
:1051F000FFE7B2B2114600F0A7F9B8F80C0021465B
:10520000BDE8F04300F0A0B9380300202DE9FE4FBF
:105210000446104401EB0308DFF8C491401EA8F1D6
:10522000010887B2B9F80400C8F3072302930B0AF8
:105230000093A3185B1EC3F3072301934B460D464F
:105240005B89A0F513411FFA88F64FEA142B413908
:1052500010D0A0F5A64110390CD0A0F5D0410439EA
:1052600008D099F806A041F6631CBAF1010F1CD1D1
:1052700060451AD14A46184600F050F9584600F0E9
:1052800041F9E0B200F03EF9019800F03BF9F8B2C4
:1052900000F038F9908900F041F9009800F032F9F7
:1052A000E8B200F02FF9029825E04D4960450988E1
:1052B00024D1881A001B84B24F461FFA88F618467C
:1052C00000F02CF9200A00F01DF9E0B200F01AF904
:1052D0002244521EC2F30F2000F014F9D0B200F0A5
:1052E00011F9B88900F01AF9009800F00BF9E8B24A
:1052F00000F008F9300A00F005F962E0A0F5A04CD2
:105300004A46BCF5A26C23D0BAF1010F5ED03B46F1
:1053100020462F46502201464FF0510A4FF05209C5
:105320004FF05308104600F00FF91946504600F0B0
:105330000BF93946484600F007F93146404600F07F
:1053400003F903B029462046BDE8F04FFFF7B6BE8B
:10535000184600F0E3F8584600F0D4F85089401C95
:1053600080B200F0DBF8E0B200F0CCF85089801C8D
:1053700080B200F0D3F8019800F0C4F85089C01C46
:1053800080B200F0CBF8F8B200F0BCF8908900F0E1
:10539000C5F8009800F0B6F89089401C80B200F083
:1053A000BDF8E8B200F0AEF89089801C80B200F041
:1053B000B5F8029800F0A6F89089C01C80B200F001
:1053C000ADF8F0B2BDE8FE4F00F09CB8CA1B521E0B
:1053D000091B3346491E284697B28EB29AE7000051
:1053E000380300202DE9F84F82461F460C468B46B5
:1053F000580700D0012000EBD700790810FB01F01E
:10540000203AC0B202F0FF090026009041E00C2FC4
:1054100010D0102F12D0182F3ED1204909EBC9000F
:1054200001EB80004FF00008855D28060AD51C4876
:1054300002880BE009EB49001A49F1E71A4901EB30
:105440000910EFE70A9828B91548428821465046C6
:10545000FCF796F86806050E1448641CA4B2408850
:10546000A04219D9A4EB0B00B84209D10AF10100FE
:105470001FFA80FA0D485C46018851450CD906E0B8
:1054800008F1010000F0FF08B8F1080FCDD3761C39
:10549000F6B200988642BAD3BDE8F88FDA5B01080D
:1054A0002400002076510108EA5501083803002045
:1054B0002DE9F84F044600F0FF0810190D46DDE90C
:1054C0000A761FFA80FA58191FFA80F94FF0000B7C
:1054D00011E0544502D3E819444685B24D450FD238
:1054E0003B4629462046CDF800B0FFF77BFF04EB92
:1054F000570084B2761C3278A2F120005E28E8D9E9
:10550000BDE8F88F01B5BDF80000ADF80000BDF8AA
:1055100000004FF0D841A1F8800008BD01B5BDF8EA
:105520000000ADF80000BDF800004FF0D841A1F830
:105530007E0008BD03484FF0D8410089A1F87E00E5
:1055400070470000380300204FF0D84222F87E0F49
:10555000518070477CB50121202000F073FB0120B1
:105560008DF8040000228DF8062003218DF8051027
:10557000074D4FF4C0648DF8070000946946284633
:10558000FBF7BAFE21462846FBF704FF7CBD00006E
:10559000001402407CB52E494FF478401025088055
:1055A0002CA0CDE900502B46C82232211E20FFF747
:1055B0007FFF2DA0CDE900501023C82246211E20D8
:1055C000FFF776FF2BA0CDE900501023C8225A2107
:1055D0001E20FFF76DFF2BA0CDE900501023C8223D
:1055E0006E211E20FFF764FF4FF6FF7415E028A020
:1055F000CDE900501023F02282211E20FFF758FF32
:10560000C82000F08BFFAA23EF2282211E200094E5
:10561000FCF73EF8C82000F081FF00F095F9002863
:10562000E5D11EA0CDE900501023C82282211E2002
:10563000FFF73EFF1C490120CDE900010023802235
:105640001AA11D480FF0C4F9BDE87C400EF032BD30
:10565000240000204578706C6F7265722053544DA1
:1056600033324634000000004F5632363430205476
:105670004553540041544F4D40414C49454E5445CB
:105680004B000000323031342F352F313400000010
:105690004F56323634302045525200004F56323683
:1056A0003430204F4B0000001C00002073746172E6
:1056B000745F7461736B0000A5E30008FEE7704738
:1056C00030B50F23C27801780125FAB1144A126867
:1056D00001F1E02102F4E062C2F5E062C2F30722C8
:1056E000C2F10404D3404278A24084781C401443A1
:1056F000220181F80024007800F01F018D4040094C
:10570000800000F1E020C0F8005130BD01F01F0022
:1057100085404809800000F1E020C0F8805130BD8C
:105720000CED00E0024908430249086070470000A0
:105730000000FA050CED00E070B50849002401EB0B
:10574000C00505EB4400417815F8140000F00AFC90
:10575000641CE4B2042CF4D370BD0000D46A0108C8
:1057600010B504460021FF2000F0FCFB00217C2046
:1057700000F0F8FB04217D2000F0F4FB09217C20DF
:1057800000F0F0FB2007010E7D2000F0EBFB002174
:10579000BDE810407D2000F0E5BB10B504460121B6
:1057A000FF2000F0DFFB122000F046FB20F002019A
:1057B0000CB141F00201BDE81040122000F0D2BB54
:1057C000000110B52030C0B240F008040021FF20D5
:1057D00000F0C8FB00217C2000F0C4FB02217D20EA
:1057E00000F0C0FB03217C2000F0BCFB21467D20A3
:1057F00000F0B8FB2146BDE810407D2000F0B2BBB0
:1058000070B520252C4630B1012807D0032808D0D8
:1058100004280BD108E01825342407E01C252A248D
:1058200004E02425162401E028250C240021FF2073
:1058300000F098FB00217C2000F094FB04217D20E7
:1058400000F090FB07217C2000F08CFB20217D20C4
:1058500000F088FB29467D2000F084FB21467D2056
:1058600000F080FBBDE8704006217D2000F07ABB8F
:1058700070B50D4604460021FF2000F073FB0421A3
:10588000E02000F06FFBC4F3C701C02000F06AFB0A
:10589000C5F3C701C12000F065FB600705F00702F2
:1058A00042EA9062802000EA141111438C2000F03B
:1058B00059FB0021E02000F055FB002070BD2DE9D0
:1058C000F04107460E46900702D00120BDE8F08166
:1058D000980701D00220F9E794089D080021FF20D5
:1058E00000F040FB0421E02000F03CFBE1B251203D
:1058F00000F038FBE9B2522000F034FBF9B253203B
:1059000000F030FBF1B2542000F02CFB284680253B
:1059100005EA5001702000EA16100843082101EA48
:1059200054110143C7F302200143552000F01AFB34
:1059300005EA9401572000F015FB0021E02000F05B
:1059400011FB0020C2E700002DE9FC4100240121E9
:10595000402000F077F94FF40240012500908DF8C7
:10596000045000268DF8066002208DF805008DF8A1
:10597000075069462848FBF7BFFC284FC7F8A462C8
:105980000A2007F5297700F0C9FDBE610A2000F062
:10599000C5FDBD6100F0DAF90121FF2000F0E2FA57
:1059A0008021122000F0DEFA322000F0B7FD1C202A
:1059B00000F042FA4FF6FF7505EA00261D2000F0C0
:1059C0003BFA40EA0601A1F5FE40A23805D014A03A
:1059D000FAF7D8FC0120BDE8FC810A2000F02CFA7F
:1059E00005EA00250B2000F027FA40EA0501A1F5A1
:1059F0001850423802D00DA0FAF7C4FC0E4D05EB4A
:105A00004400417815F8140000F0ACFA641CA4B20C
:105A1000B22CF4D30020DEE700180240000043421D
:105A20004D49443A25640D0A000000004849443AB3
:105A300025640D0A000000003669010870B50E4D9E
:105A4000002405EB4400417815F8140000F08AFAB0
:105A5000641CA4B2082CF4D3074D00242A3D05EBA6
:105A60004400417815F8140000F07CFA641CA4B2DC
:105A7000072CF4D370BD0000C46A010870B55E2520
:105A80004126542430B102280BD003280CD004281E
:105A900010D10CE00021FF2000F064FA1021C72093
:105AA0001AE065254F2405E05225662402E04225D0
:105AB0003F2671240021FF2000F054FA4021C72026
:105AC00000F050FA2946CC2000F04CFA3146CD20A7
:105AD00000F048FA2146CE20BDE8704000F042BAFE
